:0200000460009A
:100000004643464200000156000000000101020084
:1000100000000000000000000000000000000000E0
:1000200000000000000000000000000000000000D0
:1000300000000000000000000000000000000000C0
:1000400000000000010403000000000000000000A8
:100050000000800000000000000000000000000020
:100060000000000000000000000000000000000090
:100070000000000000000000000000000000000080
:10008000EB04180A063204260000000000000000FD
:10009000050404240000000000000000000000002F
:1000A0000000000000000000000000000000000050
:1000B0000604000000000000000000000000000036
:1000C0000000000000000000000000000000000030
:1000D00020041808000000000000000000000000DC
:1000E0000000000000000000000000000000000010
:1000F0000000000000000000000000000000000000
:10010000D8041808000000000000000000000000F3
:100110000204180804200000000000000000000095
:1001200000000000000000000000000000000000CF
:10013000600400000000000000000000000000005B
:1001400000000000000000000000000000000000AF
:10015000000000000000000000000000000000009F
:10016000000000000000000000000000000000008F
:10017000000000000000000000000000000000007F
:10018000000000000000000000000000000000006F
:10019000000000000000000000000000000000005F
:1001A000000000000000000000000000000000004F
:1001B000000000000000000000000000000000003F
:1001C000000100000010000001000000000000001D
:1001D000000001000000000000000000000000001E
:1001E000000000000000000000000000000000000F
:1001F00000000000000000000000000000000000FF
:10020000FFFFFFFFFFFFFFFFFFFFFFFFFFFFFFFFFE
:10021000FFFFFFFFFFFFFFFFFFFFFFFFFFFFFFFFEE
:10100000D10020402C100060000000000000000013
:1010100020100060001000600000000000000000D0
:1010200000000060385601000000000000000120B0
:1010300035100060774B4FF42A01774A77485A649D
:101040001864774A99639546764A03F530337649B2
:1010500008208A42C3F854010FD0744B9A420CD234
:10106000D4430846234423F0030304330B4450F8CD
:10107000041B984242F8041BF9D16D4A6D498A421B
:101080000FD06D4B9A420CD2D4430846234423F030
:10109000030304330B4450F8041B984242F8041B2A
:1010A000F9D1664A664B9A420BD2D04311460024CE
:1010B000034423F003030433134441F8044B8B42ED
:1010C000FBD1604A4FF470015F4B116003F5307142
:1010D0005E4A43F8042F9942FBD15D4B80215D4A63
:1010E00003F8011B9342FBD15B4C4FF080375B4E02
:1010F0004FF0FF32DFF8A4A10025DFF8A491DFF85C
:10110000A481574B4349C3F800A0C4F80471C4F844
:101110000091C4F8F470C4F8F080F36923F07F0301
:1011200043F04003F361736A23F07F0343F040030D
:1011300073628A66CA660A674A6700F0B5F8494A68
:101140006320494B4949106003221D60CAF83810DA
:1011500043F8082C4649474A4748C3F8082D0B680E
:10116000464A43F08073CAF83C0045480B60136858
:10117000444943F00103136003680B6000F0CEFAAA
:10118000C4F804714048C4F80091C4F8F470C4F87D
:10119000F08000F0A9FC00BF00BF00BF00BFF16EEF
:1011A0003A4A41F440513A4BF1661560C2F8085191
:1011B000C2F81851C2F82851C2F838519A6BD207B8
:1011C00008D442F61562334959651A659A6B42F0A4
:1011D00001029A632E4A304C936843F001139360E6
:1011E00000F0DEF800F07CFC2368132BFCD900F043
:1011F00055FB00F0C9FB00F06BFC00F0C1FA00F0F9
:101200006BFC2368B3F5967FFBD300F059FC00F02C
:101210005BFCFEE700C00A40BFAAAAAA07002000A4
:101220000080062000000000101B0060A80B0100D9
:1012300000000020BC260160802F00209C5500206B
:10124000C082002088ED00E0FC630020D9D80000B7
:1012500000E400E0A0E400E000800D4000C00F408A
:1012600008ED00E014E000E018E000E0B5EA00005E
:10127000FCED00E000002020B9EA0000001000E0D2
:10128000041000E0B45C00200046C3230040084086
:1012900000400D400000C056BC5C002000640020EF
:1012A0001B1018200C0D1113F0B5284A0020284BF4
:1012B0004FF0100C274C1127DFF8D8E012262060E1
:1012C0000125C2F800C0C3F800E01760DFF8C8E0ED
:1012D000214FC3F800E016601F60204E204F1660BB
:1012E00020491F60204E41F01501204F16601F60FD
:1012F00007F540371E4E116002371E60DFF89CE094
:101300001C4E1D49C2F800E01F6016601B4F19609B
:101310001B4E1C4917601E601B4F11601B4E1C4961
:101320001F60166019602560BFF34F8FBFF36F8F8A
:10133000C3F8B001BFF34F8FBFF36F8F52F8883CF3
:1013400043F4403342F8883CF0BD00BF9CED00E020
:10135000A0ED00E094ED00E0090010001300200073
:1013600021000207C082002014000020250008137D
:10137000090000101700004033001013180000602F
:101380002F000B071900007037000B171A000070B0
:101390002F000B133F00001025000803160020202B
:1013A000F0B5B84B1822B84E0120B84948F20C7E6F
:1013B000B74D4FF0FF37B74CC3F85C12C3F860521B
:1013C0000025C3F86412C3F868424FF40054C3F810
:1013D0006C62B149C3F87062C3F87462C3F8786292
:1013E000AE4EDA661A675A679A67DA67C3F88020E2
:1013F000C3F88420C3F8882040F20562C1F82C03AA
:10140000C1F83003C1F83403C1F83803C1F83C0314
:10141000C1F850032946B369A1481840A14B0343C2
:10142000A148B361D6F8843043F00C03C6F8843089
:101430000226036833430360036803EA0E0E9B4BE6
:101440004EEA0303DFF89CE20360994B4760DEF845
:1014500008703B40974F43F000538360C36823F00C
:101460007803C360036A1F40934B3B43914F036271
:10147000036A1F40904B3B43904F43628762C762B1
:10148000DEF8B8308E4F23F03F0343F00103C0F87D
:10149000B830DEF8BC30DFF834E223F03F0343F02D
:1014A0000103C0F8BC30056104660767C0F88020FE
:1014B00044664767C0F884200468824B24F0020425
:1014C000814A0460C0F818E0C66143F8041B9342E7
:1014D000FBD1754B1A68194642F001021A600B687D
:1014E000714A13F00103FAD1784E022540F2F564F7
:1014F00040F2664040F29941754F966142F20146D2
:10150000D56140F23545C2F8004242F20124C2F8EA
:1015100010020120C2F820121146C2F8307207F101
:101520005A47C2F8346207F51377C2F84052694E41
:10153000694DC2F85072C2F85462C2F86052C2F8E3
:101540006442C2F8A030C2F8A430C2F8B0004B69BF
:10155000554ADD07FBD5012300244FF480301146A6
:101560005361C2F8A040C2F8A400C2F8B0304B6981
:101570004D4ADC07FBD5012300244FF4003011460F
:101580005361C2F8A040C2F8A400C2F8B0304B6961
:10159000454AD807FBD50123002450481146536122
:1015A000C2F8A040C2F8A400C2F8B0304B693E4A6D
:1015B000DB07FBD5D2F8003145F60D5121209BB257
:1015C00050618B4200D0F0BD00244FF480200123F5
:1015D0001146C2F8A040C2F8A400C2F8B0304B696E
:1015E000314ADF07FBD501234FF4000400201146E8
:1015F0005361C2F8A040C2F8A400C2F8B0304B69F1
:10160000294ADE07FBD501234FF400044FF4803054
:1016100011465361C2F8A040C2F8A400C2F8B0302D
:101620004B69214ADD07FBD501234FF400044FF439
:10163000003011465361C2F8A040C2F8A400C2F8BD
:10164000B0304B69184ADC07FBD501234FF4000486
:10165000224811465361C2F8A040C2F8A400C2F863
:10166000B0304B69104AD807FBD5D2F8003145F6A7
:101670000D5121209BB250618B4235D0184B08226E
:101680001A70F0BD00801F40F9700100F9B0010030
:10169000F9100100F900010000841F4000C00F4054
:1016A000FFFCFF1F000300A000402A401200FFFFC4
:1016B000FF37F70000FFF07C40000080FF000F8341
:1016C0006300020000422A4000432A40F05AF05AC8
:1016D0009F041830063201263806180A0400030059
:1016E000C05C002000802A404FF400044FF48020AA
:1016F00001231146C2F8A040C2F8A400C2F8B030DD
:101700004B69044ADB07FBD50120034B10215061D4
:101710001970F0BD00402A40C05C0020F0B4174AA8
:1017200040274FF480314FF480564FF400554FF46A
:10173000404443F24200136913F0020F06D0946153
:1017400051619061136913F0020FF8D113F4005F37
:1017500001D15561EFE713F4805F01D15661EAE7EB
:10176000002BE8DA13F4803F01D09161E3E75B06D8
:1017700001D45761DFE7F0BC704700BF00800D4027
:101780003B4AF3EE096A3B4900201368F0B523F0A9
:1017900001030324DFF800E11360C2F89040D1F8A0
:1017A000E030354FDDB2C3F30B24344EC4EB13539A
:1017B00007EE905AA5F15501CEF80050B8EEE77A41
:1017C00003EB830507EE904A03FB01F13B6003EB5B
:1017D0008313B8EEE75A07EE901A491B77EE666A54
:1017E000B8EE677A264D07EE901A0B44C5ED006AF5
:1017F000F8EE677A3460C7EE265A224E1568224901
:10180000224C87EEA66A07EE903A214BC6F840318B
:10181000F8EE677A87EEA67A75EE855A76EE056A57
:10182000FCEEE55AFCEEE66A15EE903A45EA035303
:1018300016EE905A77EE057A136001EA0541D2F868
:101840001031FCEEE77A0B43C2F8103117EE903AF4
:10185000D2F81011C3F30B030B43C2F81031136815
:1018600043F00203136020700A4B01221A60F0BD9E
:1018700080810D4000441F40CC5C0020D05C0020E3
:10188000C85C0020006400200000FF0F40E400E07E
:10189000B5D9000008E100E0C45C0020304B40F600
:1018A000617270B5C3F8202140F2044500F024F9BC
:1018B0002C492D48D1F880202C4C42F003022C4BAF
:1018C000C1F88020C0F86051226813401BB9D0F8DD
:1018D000A8319A071AD0244B4FF00041234A516394
:1018E0001A46D3F8401141F00201C3F84011D2F872
:1018F00040319B07FBD44FF400301E491B4B4FF087
:101900000042086019209A6300F0F2F81A4D002294
:10191000164B4FF08041144C0A26996328461A60F2
:101920001146C4F8A8614FF4207200F0C5F84FF4D6
:1019300081064FF4800040F24313104A10492E6094
:101940002864C4F85851C2F80412C4F848310D4A4A
:101950004FF4003101231160C4F8403170BD00BF65
:1019600000800D4000C00F4000002E4000900D4050
:10197000001C1E008CE200E00080002000640020BB
:1019800021DB00000CE100E0114B1249D86E0A4641
:1019900040F4403030B4D86640F23765D86EA024A9
:1019A00040F44070D8664D648C64936C1B06FCD484
:1019B000094B40F23760A0211A4658649964936C31
:1019C00013F08003FBD1054A137030BC704700BF91
:1019D00000C00F4000400C4000800C40115F002010
:1019E00016035500530042002000530065007200AA
:1019F000690061006C000000180354006500650078
:101A00006E00730079006400750069006E006F005D
:101A10000403090409024300020100C03209040062
:101A2000000102020100052400100105240101014A
:101A30000424020605240600010705820310001095
:101A400009040100020A000000070503024000002B
:101A5000070584024000000009024300020100C0A3
:101A600032090400000102020100052400100105F2
:101A70002401010104240206052406000107058251
:101A80000310000509040100020A00000007050315
:101A90000200020007058402000200000A0600029C
:101AA00002000040010001FFF8B500BFF8BC08BC0F
:101AB0009E467047FFFFFFFF5FF800F049FB000004
:101AC0005FF800F0A1F400005FF800F009EF0000FB
:101AD0005FF800F0C1F100005FF800F0F5D80000F9
:101AE0005FF800F0F1D800005FF800F071D400005A
:101AF0005FF800F035D700005FF800F0D9E2000091
:101B00004500000091010000D1100000912200006A
:101B100000000000000000000000000000000000C5
:101B200000000000000000000000000000000000B5
:101B300010B5054C237833B9044B13B10448AFF307
:101B400000800123237010BD9C5500200000000080
:101B5000A40B0100084B10B51BB108490848AFF3AE
:101B600000800848036803B910BD074B002BFBD069
:101B7000BDE81040184700BF00000000A05500203D
:101B8000A40B0100802F00200000000000207047FF
:101B9000704700BF08B501210D200DF0DFFB642167
:101BA000054802F0EFF800210D200DF0D7FB64216D
:101BB000014802F0E7F8EEE73456002000B54FF494
:101BC0007A6283B04EF66021194800F0DFFE00F023
:101BD000F7FFD0B100F0E4FF022821D0154801F052
:101BE00067FB0D2114480EF049FC14480EF0DAFD95
:101BF000684600F0E7FF114968460EF0F5FC0F4813
:101C00000EF0D0FD03B05DF804FB45210C480EF04A
:101C100035FC0A480EF0C6FD00F0C2FF0228DDD1F7
:101C2000202108480EF02AFC04480EF0BBFDD5E741
:101C30008C180020B85500206C00002024270020BC
:101C4000000000204800002030B5012183B00D20A5
:101C50000E4C0DF089FB00251A210D480EF00EFCEC
:101C60000C480EF09FFD204600954FF0FF330122F7
:101C7000094901F0F1FF4FF0FF33012207490095B8
:101C8000204601F0E9FF03B030BD00BF345600200C
:101C90007C00002024270020AD000000850000000B
:101CA00070B50022084B094C5025094E11462046BC
:101CB0001A711E60DD800EF011FE2046054A0649AD
:101CC000BDE870400FF062B9B8550020C85500203B
:101CD00048190020701F00204DED000070B594B031
:101CE000054C064908A801F069FB22789DF82D30C3
:101CF0009A4205D814B070BDDC550020B8550020BC
:101D0000B748182114AA006842F84C1D02A950F8DF
:101D1000230009F0E9FF002800F0BE8423789DF835
:101D20002D209A42E6D20A21AE480EF0A7FBAE481B
:101D3000AE4D0EF037FD08A800F086FF0028D9D080
:101D400008A801F049F90028F5D008A801F06EF8BC
:101D5000AB68C4B2632B40F2B6840A2CEBD1A44921
:101D600002A80EF0BBFD02A9A0480EF043FE0446F7
:101D700002A8A04E0EF072FD002C03DD337883F034
:101D8000010333709C4902A80EF0A8FD02A99748F0
:101D90000EF030FE044602A80EF060FD002C974CB9
:101DA00003DD237883F0010323700F22944908A8F0
:101DB00001F00AF808A80EF0F5FC1722914908A8CE
:101DC00001F002F808A80EF0EDFC11228E4908A8D7
:101DD00000F0FAFF08A80EF0E5FC0A228B4908A8DB
:101DE00000F0F2FF08A80EF0DDFC08A80EF0DAFC07
:101DF0000F22874908A800F0E7FF08A80EF0D2FCE0
:101E00000622844908A800F0DFFF08A80EF0CAFCEB
:101E10000622814908A800F0D7FF08A80EF0C2FCEE
:101E20001A227E4908A800F0CFFF08A80EF0BAFCDD
:101E300016227B4908A800F0C7FF08A80EF0B2FCE4
:101E40001722784908A800F0BFFF08A80EF0AAFCE6
:101E5000C622754908A800F0B7FF08A80EF0A2FC3A
:101E6000C922724908A800F0AFFF08A80EF09AFC3A
:101E7000C2226F4908A800F0A7FF08A80EF092FC44
:101E8000C5226C4908A800F09FFF08A80EF08AFC44
:101E9000C722694908A800F097FF08A80EF082FC45
:101EA000C422664908A800F08FFF08A80EF07AFC4B
:101EB000C522634908A800F087FF08A80EF072FC4D
:101EC0000822604908A800F07FFF08A80EF06AFC0D
:101ED0001C225D4908A800F077FF08A80EF062FCFC
:101EE00043225A4908A800F06FFF08A80EF05AFCD8
:101EF0005122574908A800F067FF08A80EF052FCCD
:101F00000922544908A800F05FFF08A80EF04AFC17
:101F10000722514908A800F057FF08A80EF042FC1C
:101F20004D224E4908A800F04FFF08A80EF03AFCD9
:101F300040F215124A4908A800F046FF08A80EF022
:101F400031FC0722474908A800F03EFF08A80EF020
:101F500029FC0422444908A800F036FF08A80EF026
:101F600021FC1022414908A800F02EFF08A80EF01D
:101F700019FC1F223E4908A800F026FF08A80EF011
:101F800011FC8B223B4908A800F01EFF08A80EF0A8
:101F900009FC0522384908A800F016FF08A80EF031
:101FA00001FC2C22354908A800F00EFF08A80EF00D
:101FB000F9FB1F222E4908A800F006FF08A80EF022
:101FC000F1FB72222E4908A800F0FEFE08A80EF0D0
:101FD000E9FB0522284908A800F0F6FE52E000BF00
:101FE000E45500209800002024270020C855002038
:101FF000A4000020C5550020B4000020C4550020D6
:10200000C4000020D4000020EC00002000010020CB
:102010000C0100201C010020240100202C010020C4
:1020200048010020600100207801002040020020CB
:102030000C030020D003002098040020600500203D
:1020400028060020F0060020FC0600201C070020C7
:1020500060070020B4070020C0070020C807002048
:10206000180800203009002038090020400900200D
:102070005409002074090020000A0020080A0020EA
:10208000380A002008A80EF08DFB1022B84908A8D5
:1020900000F09AFE08A80EF085FB1E22B54908A89C
:1020A00000F092FE08A80EF07DFB5B22B24908A862
:1020B00000F08AFE08A80EF075FB0F22AF4908A8B1
:1020C00000F082FE08A80EF06DFB0822AC4908A8BB
:1020D00000F07AFE08A80EF065FB1422A94908A8B2
:1020E00000F072FE08A80EF05DFBCB22A64908A8FE
:1020F00000F06AFE08A80EF055FB0522A34908A8C7
:1021000000F062FE08A80EF04DFB0522A04908A8C9
:1021100000F05AFE08A80EF045FB04229D4908A8CD
:1021200000F052FE08A80EF03DFB4A229A4908A88A
:1021300000F04AFE08A80EF035FB5C22974908A87B
:1021400000F042FE08A80EF02DFB1022944908A8CA
:1021500000F03AFE08A80EF025FB9022914908A84D
:1021600000F032FE08A80EF01DFB33780822002B89
:1021700000F0EE828C4908A800F026FE08A80EF0B8
:1021800011FB7B22894908A800F01EFE08A80EF06A
:1021900009FB0822864908A800F016FE08A80EF0E0
:1021A00001FB8522834908A800F00EFE08A80EF066
:1021B000F9FA23780822002B00F0D2827A4908A885
:1021C00000F002FE08A80EF0EDFA7E227A4908A877
:1021D00000F0FAFD08A80EF0E5FA0822744908A8F4
:1021E00000F0F2FD08A80EF0DDFAB122734908A84C
:1021F00000F0EAFD08A80EF0D5FA7322704908A88D
:1022000000F0E2FD08A80EF0CDFA0822684908A8FF
:1022100000F0DAFD08A80EF0C5FA8C22694908A87A
:1022200000F0D2FD08A80EF0BDFA8422664908A885
:1022300000F0CAFD08A80EF0B5FA08225C4908A80B
:1022400000F0C2FD08A80EF0ADFABD225F4908A853
:1022500000F0BAFD08A80EF0A5FA64225C4908A8AF
:1022600000F0B2FD08A80EF09DFA202259490DEBAE
:10227000020000F0A9FD08A80EF094FA8C2256493D
:1022800008A800F0A1FD08A80EF08CFA8E22534990
:1022900008A800F099FD08A80EF084FA0822444925
:1022A00008A800F091FD08A80EF07CFA17224C490E
:1022B00008A800F089FD08A80EF074FA0522334939
:1022C00008A800F081FD08A80EF06CFA2C22454900
:1022D00008A800F079FD08A80EF064FA102224493D
:1022E00008A800F071FD08A80EF05CFA1F223E4914
:1022F00008A800F069FD08A80EF054FA5B223B49DB
:1023000008A800F061FD08A80EF04CFA0822284940
:1023100008A800F059FD08A80EF044FA0922344933
:1023200008A800F051FD08A80EF03CFA5B22124903
:1023300008A800F049FD08A80EF034FA0D222D4936
:1023400008A800F041FD08A80EF02CFA0B222A493B
:1023500008A800F039FD08A80EF024FA0422274945
:1023600008A800F031FD08A80EF01CFA0B2247E087
:1023700040090020AC0A0020CC0A0020280B0020D5
:10238000380B0020440B00205C0B0020000A0020CA
:10239000280C002038090020300C00207C0C002084
:1023A000DC0C0020F00C0020840D00209C0D00208F
:1023B000E40C0020180E0020A00E0020200F0020AA
:1023C000D40F002048100020D810002060110020F9
:1023D0002012002088120020AC1200203C130020A4
:1023E000CC130020080A002054090020E413002028
:1023F000401400204C1400205C140020E80C002045
:10240000B94908A800F0E0FC08A80EF0CBF90922B1
:10241000B64908A800F0D8FC08A80EF0C3F95B2262
:10242000B34908A800F0D0FC08A80EF0BBF90722B9
:10243000B04908A800F0C8FC08A80EF0B3F90922BA
:10244000AA4908A800F0C0FC08A80EF0ABF95B226E
:10245000A94908A800F0B8FC08A80EF0A3F90622C4
:10246000A64908A800F0B0FC08A80EF09BF90922C4
:102470009E4908A800F0A8FC08A80EF093F95B227A
:102480009B4908A800F0A0FC08A80EF08BF90E22CA
:102490009B4908A800F098FC08A80EF083F90922CF
:1024A000924908A800F090FC08A80EF07BF95B2286
:1024B000914908A800F088FC08A80EF073F90622DC
:1024C0008E4908A800F080FC08A80EF06BF90822DD
:1024D0008C4908A800F078FC08A80EF063F91F22C8
:1024E000894908A800F070FC08A80EF05BF99B224F
:1024F000864908A800F068FC08A80EF053F91F22CE
:10250000814908A800F060FC08A80EF04BF99D2254
:102510007F4908A800F058FC08A80EF043F90622ED
:10252000764908A800F050FC08A80EF03BF9932269
:10253000784908A800F048FC08A80EF033F90622F4
:102540006E4908A800F040FC08A80EF02BF99B2269
:10255000714908A800F038FC08A80EF023F92022E1
:102560006E490DEB020000F02FFC08A80EF01AF9DE
:10257000A1226B4908A800F027FC08A80EF012F968
:102580000522684908A800F01FFC08A80EF00AF907
:102590000522654908A800F017FC08A80EF002F90A
:1025A0000422624908A800F00FFC08A80EF0FAF80F
:1025B00004225F4908A800F007FC08A80EF0F2F812
:1025C0000522584908A800F0FFFB08A80EF0EAF819
:1025D0000422574908A800F0F7FB08A80EF0E2F81B
:1025E0000522504908A800F0EFFB08A80EF0DAF821
:1025F00004224F4908A800F0E7FB08A80EF0D2F823
:102600000522484908A800F0DFFB08A80EF0CAF828
:102610000522454908A800F0D7FB08A80EF0C2F82B
:102620000822444908A800F0CFFB08A80EF0BAF829
:102630000822414908A800F0C7FB08A80EF0B2F82C
:102640001F22314908A800F0BFFB08A80EF0AAF825
:1026500093223A4908A800F0B7FB08A80EF0A2F8A8
:102660000722374908A800F0AFFB08A80EF09AF837
:102670000722344908A800F0A7FB08A80EF092F83A
:1026800001200CF0DFFD08A800F05AFB2E492F486E
:102690000EF05EF9FFF74FBBBDF80A309DF8105001
:1026A0005BBA9DF811009DF812109DF81320ADF84B
:1026B0003C308DF838508DF839008DF83A108DF88F
:1026C0003B20FFF72BBB214902A80EF01BF9214646
:1026D00002A80EF07FF901461C480EF031F902A85D
:1026E0000EF0BCF8FFF739BB68140020401400203E
:1026F000E413002074140020CC0A00207C14002075
:1027000084140020E40C00205409002094140020BC
:1027100030150020D015002064160020001700207E
:1027200024170020000A0020280C0020380900206F
:10273000C8170020D0170020DC170020E817002061
:102740007C1800208418002038130020C855002071
:10275000074908A800F038FB08A80EF023F810E598
:10276000034908A800F030FB08A80EF01BF82CE580
:10277000900D0020FFF7B2BA72B616E072B618E0FC
:1027800072B6224800680121016006E072B61EF1AF
:102790000F0F38D01EF11F0F35D01D4801680029DA
:1027A00003D0A1F1010101602DE01A480068012861
:1027B00029D119480068A0E8F04FA0EC200AF1EEFA
:1027C000101A02C015480068002803D1EFF30980F1
:1027D0001349086001F03AFA0F480068B0E8F04F7A
:1027E000B0EC200A02C8E1EE101A0EF0100E6EF0E6
:1027F000160E0A480068002805D10948006880F3D1
:1028000009884EF0040E62B6704700007056002032
:102810002C56002028560020145600201C5600205C
:102820003056002088B181B10288012A30B410D01E
:102830001C30002203E030F81C4B012C0AD001327E
:1028400005469142F7D130BC70474FF0FF329A6095
:10285000704705462A7A01211A746A7A5A74AA7A4C
:102860009A74EA7A9960DA7430BC70474B684360B6
:10287000704700BFF0B500238BB004460F4683605D
:1028800019461546684628220EF0E6FE01234FF44D
:102890005451174AADF80030ADF81C30ADF80210B5
:1028A000089207F0C9FE08F04DF826796179A279FF
:1028B000E37901906846069709948DF808608DF8D1
:1028C00009108DF80A208DF80B3002F0E5FC48B1B4
:1028D000A368002BFCD0A368013302D0A0680128B4
:1028E00002D000200BB0F0BD23696B600BB0F0BDCF
:1028F000150D000000207047704700BF014B18689D
:10290000704700BFBC5C002010B504460DF01CFFF2
:10291000204610BD0029194B14BF0121002130B5FC
:10292000197083B013D01546044607F085FE07F0F2
:1029300095FE00238DF804308DF805308DF80630B3
:102940008DF80730019B834208D003B030BD02F000
:1029500087FB03B0BDE8304002F076BB084B184659
:102960001C6002F003FB0028EFD0204602F078FB49
:10297000296803B0BDE8304002F0A0BBEC55002050
:10298000F0550020704700BF704700BF2DE9F04FA1
:10299000734E91B03368019103920093029007F057
:1029A0004BFE07F0A1FD002840F0A8806D4B1B688E
:1029B0001BB94FF480336B4A13606B4B1B68002BC1
:1029C00000F0C680694F3B6813B94FF400633B6069
:1029D000DFF8C48198F80000002800F0B080800083
:1029E000634D0EF023F898F8003028609800DFF867
:1029F000AC910EF01BF898F80030686058000EF0AB
:102A000015F898F80030A86058000EF00FF898F804
:102A10000030E86098000EF009F898F8003028615E
:102A200098000EF003F898F80030C9F8000058003C
:102A30000DF0FCFF98F80030686158000DF0F6FFCB
:102A40004C4A98F8003010602BB34FF0000B0FFA8F
:102A50008BF4D5F800A038680BF1010B0DF0E6FF00
:102A60004AF82400D5F804A05FFA8BFB38680DF013
:102A7000DDFF4AF82400D5F810A004200DF0D6FFA1
:102A800000224AF82400D9F8003043F8242098F8AE
:102A900000305B45DBD8344B08A81A68314B0892EC
:102AA0001B68354A0993354B0A920B9309F014FCC5
:102AB000013040D002990622314807F0C1FE0130B2
:102AC00039D007F0B9FD002835D007F0B5FD2D4A03
:102AD0002D491368059013F0010F06912B4B03D17C
:102AE000012103981160186005A8079302F0FEFC0D
:102AF00045F6BF52264927480DF0C6FD9DE80C005B
:102B000013441C4602E033689C4214D907F094FD3C
:102B100002F0A6FA02F0A0FA0028F4D001E0089B27
:102B200093B907F089FD02F09BFA08A902F0B2FA06
:102B300033689C42F3D8002011B0BDE8F08F082321
:102B4000202088F800304BE7012011B0BDE8F08F5D
:102B5000044B18680DF06AFF034B186032E700BFA2
:102B6000BC5C0020D8550020E8550020E05500202E
:102B7000000020201056002094180020A4180020E7
:102B80004824002000560020050E000004560020B6
:102B9000B5A80000741F0020DC550020E45500207B
:102BA000064B1B7803F0FF002BB1A0F10100B0FA37
:102BB00080F0400970470220704700BFEC550020AC
:102BC0000320704710B5044607F036FD07F046FDB8
:102BD000024B60602046236010BD00BF3C1F0020F8
:102BE00030B4054B0024054D5C601D60044A054966
:102BF000054830BC0EF0CAB9085600203C1F002022
:102C0000701F0020F90D0000741F002080F82A10AA
:102C1000704700BF8969024A41600260704700BF87
:102C20003C1F0020808B7047008A7047C18170472D
:102C300010B582B00468012202AB03F8011D1946E9
:102C40006368984702B010BD104A437B12789A42DD
:102C500001D80020704710B50446184600F06CFCFF
:102C6000182803D91C2809D0012010BD084B23FACD
:102C700000F000F0010080F0010010BD2368204644
:102C80001B699847003018BF012010BDDC5500209B
:102C900001001001407B00F09DBD00BF2DE9F04117
:102CA000244E8AB005460F4633789046002B2FD12C
:102CB000214E407B3278214C904206930993029337
:102CC00005940894019405D200F036FC00282CD11C
:102CD00033786B7307F0B0FC07F0CAFC03A90490CB
:102CE00005A80394FFF7C2FD05A8394641F28833D1
:102CF00001AAFFF7BFFD40B12B684246029E03A91F
:102D0000DB6928460394049698470AB0BDE8F08131
:102D1000094A0023094C12783370427306930993D1
:102D20000293059408940194D4E7687B00F052FD67
:102D3000CEE700BF7C1F0020DC5500203C1F002098
:102D400038B50A4D437B2A789A420DD9084A126851
:102D500052F8232042B10446184600F03BFD607B48
:102D600000F01CFC2B78637338BD00BFDC550020DD
:102D7000E455002008B5054B407B1B78834201D801
:102D8000002008BD00F084FD08BD00BFDC55002018
:102D900070B504460A4D0B4E0BE000F0CDFB172832
:102DA00001D01C280AD1607B00F072FD3368984284
:102DB00004DA637B2A7818469A42EED870BD00BFC9
:102DC000DC550020E055002010B592B20446407B4F
:102DD00000F08AFD054B627B1B789A4203D218B93A
:102DE0000123237110BD002010BD00BFDC55002061
:102DF000C36A002B10B5044602DD9A4228BF1A466A
:102E0000094B607B1B78834201D8002010BD12B2B1
:102E100000F0EAFC03B2002B04DDE26A1846D31A84
:102E2000E36210BD184610BDDC55002010B582B01D
:102E300001220446407B0DF1070100F0D5FC02B2EF
:102E4000002A06DDE36A9DF807009B1AE36202B0E0
:102E500010BD4FF0FF30FAE70A4A417B12789142E9
:102E600009D2036810B51B690446984730B1607BEE
:102E700000F000FD10BD4FF0FF3070474FF0FF3005
:102E800010BD00BFDC5500204B7B427B934201D03C
:102E900000207047124A12789A42F9D930B5044698
:102EA00089B01048182508AA02A9006842F81C5DDC
:102EB00050F8230008F018FF78B9BDF80A309DF8E3
:102EC00010505BBA9DF811009DF812109DF8132068
:102ED000A38325766076A176E276012009B030BD25
:102EE000DC550020E45500202DE9F843294B174616
:102EF00004460D461A78284E9AB10021327819708E
:102F000042736B68013B033307D80021212000F096
:102F10005BFB3278607382420DD800252846BDE8FD
:102F2000F883407B33788342EBD900F005FB38BB54
:102F300033786373E5E73A46291D00F01BFCDFF8A0
:102F40005C80278294F82A306A68D8F80090626220
:102F5000278553B110E0D8F800300120E289C9EB91
:102F60000303934210D80CF06DF9236820465B6B85
:102F7000984705460028EED001252846BDE8F8838D
:102F8000607B00F027FCD3E7607B00F007FB337821
:102F90006373C3E77D1F0020DC550020BC5C00206C
:102FA00038B50446407B00F0C7FA17280DD0054617
:102FB000A0F11C00B0FA80F0400930B905B138BD6D
:102FC000607B00F0EBFA284638BD626A0120238D51
:102FD000A261A38338BD00BF3F4A437B12789A4267
:102FE0000ED93E4A1BB2126852F8232042B1182172
:102FF000F0B5C56A8BB0039125B128460BB0F0BD82
:1030000000207047364903AFDFF8F4E004AE0968EA
:1030100004461046DEF8002051F823102B468DE8B8
:10302000C00008F089FA2F4B627B1B6823F812500E
:10303000421C14D000284DD0BDF8123005469DF832
:1030400018705BBA9DF819609DF81A109DF81B2046
:10305000E062A38327766676A176E276CDE7607B91
:1030600000F06AFA1C28054605D81F4BC340DB0751
:1030700001D50020C2E702F0B5FD10F1140F06469D
:10308000F7D00B2119480DF0F9F900231022617BCC
:1030900017480DF097FB0E2116480DF0EFF90023AD
:1030A0001022294612480DF08DFB022112480DF026
:1030B000E5F9092111480DF0E1F90DF011FA314659
:1030C0000B480DF0BFFB0A480DF06CFB0023E362D8
:1030D000184693E7E56A90E7DC550020E4550020A8
:1030E000040020201400202001000810AC1800204B
:1030F00024270020B8180020C8180020CC18002071
:10310000E0550020154A70B5437B88B012780D4613
:103110009A4202D8284608B070BD044610481826C6
:1031200008AA006802A942F81C6D50F8230008F0B4
:10313000DBFD0028EED19DF81100BDF80A309DF8A6
:1031400010605BBA9DF812109DF813206076284637
:10315000A3832676A176E27608B070BDDC55002008
:10316000E4550020164A70B5437B88B012780D46AE
:103170009A4203D885F0010008B070BD044611489A
:10318000182608AA006802A942F81C6D50F823000E
:1031900008F0AAFD0028EDD19DF81100BDF80A3015
:1031A0009DF810605BBA9DF812109DF813206076B0
:1031B00085F00100A3832676A176E27608B070BD83
:1031C000DC550020E455002070B5164D88B0437BD7
:1031D0002A78934205D393422CBF0020012008B0E7
:1031E00070BD04461048182608AA006802A942F8D3
:1031F0001C6D50F8230008F077FD78B9BDF80A304F
:103200009DF810605BBA9DF811009DF812109DF8B2
:103210001320A38326766076A176E276637B2A78F4
:10322000D9E700BFDC550020E4550020184A70B5EE
:10323000437B88B0127804460D469A4209D8236829
:10324000294620469B6C984780F00100C0B208B028
:1032500070BD1048182608AA02A9006842F81C6D23
:1032600050F8230008F040FD0028E8D1BDF80A30EE
:103270009DF810605BBA9DF811009DF812109DF842
:103280001320A38326766076A176E276D7E700BF87
:10329000DC550020E455002010B582B004680122FE
:1032A00002AB03F8011D19466368984702B010BDD0
:1032B00070B504462120E18800F086F90D4B1B789B
:1032C000834200D870BD054600F046FA60B10A4A54
:1032D0002BB2E68821461268084822F8136001F0F4
:1032E000C1F9A0600028EDD12846BDE8704000F08B
:1032F00071BA00BFDC5500201056002031180000C4
:10330000F8B50D4B1E78A6B1002405460B4F20469C
:1033100002E0E0B2B0420CD23A68EB8832F81420F6
:1033200001349A42F5D100F007F91428F1D10120B7
:10333000F8BD0020F8BD00BFDC550020105600206D
:103340001B4B2DE9F0431E7889B076B30024054667
:10335000DFF864802046174F03E00134E0B2B0424A
:1033600023D2D8F80020EB8832F814209A42F4D106
:1033700000F0E2F81428F0D13B6801AA02A953F842
:10338000240008F04FF881460028E6D03B6853F847
:10339000240007F0AFFF3B6843F824900134A8688D
:1033A00001F080F9E0B2B042DBD309B0BDE8F083B0
:1033B000DC550020E4550020105600203C4B2DE940
:1033C000F04F1F7883B006468946002F5BD000245B
:1033D000DFF8E08000970194254603E00134E5B270
:1033E000AF421DD9D8F800204FEA440AB9F8063098
:1033F00032F814209A42F1D1284600F09DF817289F
:1034000083462AD01C2828D0142843D00028E5D190
:103410000134284BE5B21B68AF4223F80A00E1D81B
:10342000019B002B30D00023234A4FF47A75234CA4
:1034300042F2107130469DF8007033717773337328
:10344000B361736286F82A30F362B5603460F1814B
:103450007261326203B0BDE8F08F194A0223194944
:103460001268096852F82400174A51F824101268AB
:1034700008F0D4F8002810DD144B002200951B68DA
:1034800023F80A20AAE70097D9F8003048461B69BC
:103490009847C8E701230193A0E7BBF11C0F9DD11A
:1034A000284600F097F9284600F078F896E700BF24
:1034B000DC550020105600203C1F0020E0180020A2
:1034C000E455002004002020E055002014002020B6
:1034D000174B2DE9F04F07468DB01E788946684698
:1034E00039469046FFF76AFFF6B10024DFF844B092
:1034F0001FFA88FA254602E0E5B2B54214D2DBF89D
:103500000020FB8832F8142001349A42F4D1284676
:1035100000F012F81728EFD12846E5B25246494686
:1035200000F0E2F9B542EAD340460DB0BDE8F08FB5
:10353000DC55002010560020164B1B6853F8200065
:10354000A0B1154910B584B0012403AA0DF10B03F5
:1035500003940092072208F0F3F89DF80B30042B37
:1035600014D8DFE803F004070A0D100070470020AC
:1035700004B010BD1C2004B010BD132004B010BD59
:10358000172004B010BD142004B010BD012004B0F9
:1035900010BD00BFE455002017E5030070B5094ECB
:1035A00005B20446336853F8250007F0A3FE204611
:1035B000FFF7C2FF0128FAD13368002243F8252023
:1035C00070BD00BFE45500202DE9F04F5C4E89B07E
:1035D00096F80080B8F1000F00F08E80594F8B46AE
:1035E00005463B681C68ECB1002402E053F8042F48
:1035F000C2B10134E4B2A045F8D14FF000094B4606
:1036000001E0984517D918461C46FFF795FF00F0D2
:10361000FB0009F1010918285FFA89F3F1D120466E
:10362000FFF7BCFF484B0121022D1B680391029359
:1036300054D0212D03D0307809B0BDE8F08FD7F8F1
:1036400000900FFA84F80022084608F083F949F840
:1036500028004FEA88083B68DFF8E89053F8083004
:10366000002BE8D00C22002105A84FF0040A08F036
:1036700075FFD9F8003000214FF0010E9BFA9BFB3B
:1036800053F80800062202AB0791CDF800A02F499D
:10369000ADF814E0ADF816B007F0CAFFD9F8000095
:1036A00002AB0522294950F80800CDF800A007F028
:1036B000BFFF212D22D03B6805A90C22214D53F8D4
:1036C000080008F0C7FC013033D0214B002220460F
:1036D0001B6823F8142009B0BDE8F08FD7F80090DC
:1036E0000FFA84F808460022294608F033F949F811
:1036F00028004FEA8808AEE740469DE7D9F8005019
:1037000003AB1449102255F8085008680621CDF87B
:1037100000A00490284607F08BFFD9F8001004ABF6
:10372000032251F808000949CDF800A007F080FFF6
:10373000C1E72B6853F8080007F0DCFD7BE700BF0A
:10374000DC550020E4550020E055002017E503007B
:10375000105600206019002008B5054B01211B6898
:1037600053F8200007F020FEB0FA80F0400908BDB1
:10377000E455002070B5144D84B00C6856BA2D681D
:1037800001230C2201A955F82000ADF8066003942E
:10379000ADF8043008F080FB013001D004B070BDFA
:1037A00002F020FA04460D2108480CF067FE0CF0E8
:1037B00097FE214606480DF045F805480CF0F2FF4B
:1037C0000CF08EFE04B070BDE4550020641900209A
:1037D00024270020034B02211B6853F8200007F028
:1037E000BBBD00BFE45500202DE9F0411E4E450051
:1037F0001E4B37681B6837F810E02F449E452FD0CA
:1038000080460EEB02001446834212DD69B1184B6C
:1038100008461B6853F82810714408F01DFE3768ED
:1038200037F818E02F440EEB040038802046BDE83E
:10383000F081CEEB0304A4B261B10D4B08462246E1
:103840001B6853F82810714408F006FE33685F19AE
:1038500033F818E004EB0E0120463980BDE8F08112
:103860004FF0FF34E2E700BF14002020E0550020B5
:1038700004002020044A054B12681B6852F82020DF
:1038800033F81030D05C7047040020201400202052
:1038900070B5134E86B00546042405A9306803AB05
:1038A0000B2250F8250000910E490594049407F06E
:1038B00047FF013011D0316804AC02AB052251F84A
:1038C00025000849009407F03BFF013005D0029B1A
:1038D0000398181A80B206B070BD002006B070BD03
:1038E000E455002017E5030070B504460E46154662
:1038F0002046FFF7CDFFA842FAD30F4800232A46FF
:103900003146006850F8240008F0E4F9431C01D067
:1039100080B270BD02F066F90446092107480CF038
:10392000ADFD0CF0DDFD214605480CF08BFF044891
:103930000CF038FF002070BDE45500207419002001
:10394000242700200F4B1B681BB11FB59847BDE80B
:103950001F401EF0040F0CBFEFF30880EFF3098047
:10396000836913F8023C212B08D0222B00D070472A
:10397000054B01221A60FEF701BF7047FEF7FCBE3F
:10398000704700BF6C56002028560020044A9368F8
:1039900043F001039360BFF34F8FFEF7F7BE00BF04
:1039A00000C01E40044A936843F001039360BFF3D4
:1039B0004F8FFEF7EBBE00BF00001F4030B472B661
:1039C0000A4902250B680D6062B6094AD46810697D
:1039D0000634013852F824401061C4F8B45072B66D
:1039E0005A1C08BF01230B6062B6FEE72856002070
:1039F00034560020024B02221B68C3F8B4207047E3
:103A0000205600202C4A1368F0B533BB2B490C68B4
:103A1000E50628D42A4B2B4CC3F8D0412A4DFF266B
:103A2000102401232E700C601360284C471E284B75
:103A30000121E26E4FF0000C4FF0170E3F2642F4CA
:103A4000401241250846E266C3F800C0C3F804E00E
:103A50001F619E60D9601D60F0BD012BE5D0022B77
:103A60000FD00020F0BD0C68A40622D4144B194CD2
:103A7000C3F8D441184DFF26202402232E700C6079
:103A80001360124D431E154A0124E96E4FF0000CDD
:103A90004FF0170E3F2741F4401141262046E966BA
:103AA000C2F800C0C2F804E013619760D4601660E9
:103AB000F0BD1846F0BD00BF185600200CE100E034
:103AC000006400207D1E000064E400E000C00F40A0
:103AD00000C01E40951E000065E400E000001F408D
:103AE000F8B5044600204FF480674FF420560A25AD
:103AF0002346014604F1340227606660A560E06059
:103B0000206143F8140F43F8041F93424FF000055F
:103B1000F9D1C02003270CF087FF2946C0220646B2
:103B20000DF09AFD60681A4B06F10C0E0121194A3E
:103B30001B1AC6F8B450C6F8B4107360164BA661D1
:103B4000C3F800E0DFF870E0A368CEF80010134976
:103B500030600B60D06ADFF864C0C6F8BC30104B30
:103B6000CCF8006098420F4E0F4B104918BF1860F8
:103B70004FF47A7008BF1D6035600F6000210C4B58
:103B80000C4D1960D562FFF73DFF2046F8BD00BF20
:103B90000080062000640020145600202C560020CF
:103BA000D9D80000305600206C560020285600203E
:103BB00024560020351E00001C56002020560020F0
:103BC000F0B51D4E83B01D4D31682A68C368C1F839
:103BD000B8201BB14968521A082A27DDD91D00EB0D
:103BE00081010133072B1CDC51F8042B002AF8D08B
:103BF000D2F8B440012CF4D1B3FA83F1C36049097F
:103C000002F10C04D2F8BCE00D4F0E4832600E4BAE
:103C1000D2F8B820C7F800E004602A60196003B049
:103C2000F0BD002382690121C360E9E70190FFF73D
:103C3000E1FE0198C368D1E72056002030560020ED
:103C40002C560020145600201C5600200148FFF777
:103C5000B7BF00BF345600202DE9F04F83B0804637
:103C600093469946009172B6444F0223D7F800A0BC
:103C70003B6062B6B9F1FF3F00F118064FF0010555
:103C800008BFD0F8009056F8044F002C50D0D4F85C
:103C9000B430022B0DD0D4F8B43053B10135082D17
:103CA000F1D1BAF1010F51D04FF0FF3003B0BDE8B0
:103CB000F08F606810B1A368002B54D10C9B002BCF
:103CC00054D00023A3600C9AA9F12803D8F810104F
:103CD0004FF0807662602AF00200C4F80090013153
:103CE00042F803B01344C7F800A0254F009A5F6163
:103CF0000127D8F808E09A61B842DE614FF000026F
:103D00006FF006065A609A60DA601A61C4F8B8303B
:103D1000C4F8BCE0C4F8B470E662184BC8F81010E0
:103D20001DD172B6186062B6284603B0BDE8F08FA8
:103D3000C0200CF079FE2146C02201900DF08CFCD1
:103D4000019BC3F8B4401C463360A0E772B6C7F8C5
:103D500000A062B64FF0FF3003B0BDE8F08F2846F8
:103D600003B0BDE8F08F0CF063FEA7E748460CF007
:103D70005DFE01230C90A360A5E700BF285600203C
:103D8000AD1E0000054A106813681B1A994204DD35
:103D900021DF13681B1A8B42FADB7047BC5C0020E2
:103DA0000148FFF79DBE00BF3456002040BA80B2E4
:103DB000704700BF00BA7047002070472DE9F041FE
:103DC000514D0446514BEA6E514E194642F4406241
:103DD0005048EA66C3F8E860C3F8E400D1F8EC3074
:103DE0004A4A002BFADA4C4D4FF480334B490527F1
:103DF000C2F8E83043F2E9066A684FF4004C484BD9
:103E00004FF4804E1140474803224FF0160841F40A
:103E1000003169604BF2E905C3F87471C3F8787139
:103E20003127416841F440414160C0F884C04FF0FF
:103E3000020CC0F888E00120C3F87C634FF0000E4C
:103E4000C3F88463C3F88053C3F89863C3F88853F6
:103E5000C3F88C53C3F89053C3F8947307F16047C9
:103E6000C3F89021C3F88C2107F6D377C3F8A48157
:103E7000C3F8A8213D46C3F89421C3F8A021C3F894
:103E80009821C3F89C2102F186422749274E02F56A
:103E9000DE12C3F8B8E102F5F452C3F8B4E1C1F898
:103EA00030C048638863C8630864C8623868336890
:103EB000A2FB0332920C52002B681D491B1A9A4236
:103EC000FAD8184812221B4B4FF48045C0F8845092
:103ED00008465A64184A09683368A2FB0332920CF8
:103EE00002EB820203685B1A9A42FBD84FF42072FD
:103EF0001821204602F0E8F820468122172102F01E
:103F0000E3F80020BDE8F08100C00F4000800D40C4
:103F10000F1001000120210000C00A40FFDF7DFFDB
:103F200000801F400040004200841F40EC2600201B
:103F3000041000E000802D4083DE1B43014B187805
:103F400004F0A8BB04ED00E0102832D91A4B1B4A3C
:103F50009B68F0B453F82040944218BF43F82020E7
:103F6000A0F110025309042B20D89E00144D012407
:103F700002F01F0235440F2904FA02F2104FD5F85F
:103F8000806128BF0F210F4C1643C1F10F0104447B
:103F90000020C5F88061090157F82350C9B22A43AF
:103FA00047F8232084F80013F0BC70470020F0BCD1
:103FB00070474FF0FF30704700ED00E02D24000007
:103FC00000E100E0F0E000E0E0B103691B78012BC4
:103FD00018D1C3681A68AAB1A1B113680020D3F838
:103FE000E43030B4CB701D0E1C0C1B0A0D704C70ED
:103FF0008B701368D3F8E8301A0E1B0C0A714B71E2
:1040000030BC70474FF0FF30704700BF70B103699C
:104010001B78012B0AD1C36800201B681B68D3F8EA
:104020000422D3F8843281E80C0070474FF0FF304F
:10403000704700BFC3684FF000721B681B685A606E
:10404000704700BFF0B4C6684FF400078904154DEF
:1040500030684FF4803301F4F80144686760A76862
:10406000A06820F40000A060307AC00500F07860FD
:1040700005432943216401E0013B0BD0616809023B
:10408000FAD54FF4000300206360A760236CF0BCF6
:10409000138070474FF400034FF0FF306360A76058
:1040A000F0BC704700000260F0B4C7684FF4000035
:1040B0008904154D3C684FF4803301F4F8016468BD
:1040C0006060A668A06820F40000A060387AC0058F
:1040D00000F07860024315432943216401E0013B6D
:1040E00009D062681202FAD54FF400030020636021
:1040F000A660F0BC70474FF400034FF0FF306360E0
:10410000A660F0BC704700BF00000250002835D008
:10411000F8B503691B78012B2DD1C3681F6857B30D
:1041200049B30C46054606221649204608F026FAF1
:1041300008B306221449204608F020FAD8B12378A3
:1041400013F0010617D161781B06E278284643EA8E
:104150000143A5783968134343EA0523C1F8E430E5
:10416000637922791B0443EA0263C1F8E83001F065
:104170001FFE3046F8BD4FF0FF30F8BD4FF0FF3066
:10418000704700BFDC190020D419002038B5C3687F
:1041900000224FF0FF35044619680B6888685A649E
:1041A0005A629A605D6004F0DBFA2046BDE8384050
:1041B00001F0E8BDC3689A692DE9F04F074683B066
:1041C0001E6822B1904710B103B0BDE8F08F32688D
:1041D00001235362536A13F00104FBD1B06A4FF01C
:1041E000FF314FF00C09946000F13F0800F18E039D
:1041F000ED30516028F03F0823F03F0320F03F00EE
:104200002546C6F80C80A246C6F81C803361B3610F
:10421000A8F80090A8F80240FFF7CCFDB36AD6F8E2
:104220000CB0C8F8040003F22A709BF808306FF055
:104230007F088BF8089020F03F009BF8093040F28F
:104240003D698BF809409BF80A308BF80A409BF8CF
:104250000B308BF80B40FFF7ADFD0223CBF80C00C1
:104260003375B06A336909FB050003EBC50413F825
:10427000352000F6675003F835800135637820F06B
:104280003F0084F801A0A37884F802A0E37884F8C2
:1042900003A0FFF78FFD042D6060E2D1F1682B468B
:1042A00075750A89D6F810E042F02002B0680A81DC
:1042B000BEF818402D4A44F020042D49AEF81840AD
:1042C000009704F00DFA00287FF47EAF346940F2C5
:1042D000FE5EF168182233684FF047084FF4807C87
:1042E000C3F82001C3F82401C3F81801C3F81C0166
:1042F000C3F888E14FF06E0EC3F880410F24C3F875
:1043000084111C49C3F884104FF00071C3F8C450E5
:10431000C3F8C0210222C3F8C481C3F844C1C3F862
:10432000900138463C627468C4F844E099605A626F
:1043300001F0FEFE00287FF447AF33684FF00042E3
:104340004FF08071C3F8E400C3F8E8005A66C3F880
:104350000402C3F884025A6E22F000425A663062A8
:104360007062196103B0BDE8F08F00BF092B000037
:10437000252500000401FE05F8B50D46002933D0BF
:104380004B690D2B30D9C3681E68F3691C8804F093
:104390008004A4B2002CF9D15868FFF70BFD214628
:1043A000034607464FF0FF32284605F0EFFCAB69A5
:1043B00099061ED5686980B2F469FFF7F7FCF369C6
:1043C00060801A8842F080021A80BFF35F8F1A88DB
:1043D000920632684CBFF3680833F3615369002BCF
:1043E000FCD14FF0807353612846BDE8F84005F0DA
:1043F00029BEBB896869082B19D02728DBD94DF65F
:1044000086529342D7D1397D28230029D3D003F196
:104410000E0206293A441ED0112915D00129CAD10D
:1044200004339842C7D300239370D370C3E7132893
:10443000C1D9BB8A23F04003002BBCD1BB7BF97DE3
:104440009B0003F03C03E0E708339842B3D300231A
:104450009371D371AFE714339842ACD30023137434
:104460005374A8E7C2684FF0FF33F0B4CE18176852
:10447000053116F8014F082006E01E4B01384FEABF
:10448000540483EA05030AD084EA03025D08D207D4
:10449000F3D401384FEA53034FEA5404F4D18E4267
:1044A000E7D19B0E012203F01F011F2B3B6802FA8C
:1044B00001F208D8D3F824110A420FD03B6A1A43FC
:1044C0003A62F0BC7047D3F820110A420DD1D3F8FC
:1044D00020110A43F0BCC3F820217047D3F82411FF
:1044E0000A43F0BCC3F8242170477B6A1A437A62FE
:1044F000F0BC70472083B8EDC2684FF0FF33F0B4D2
:10450000CE181768053116F8014F082006E0184B41
:1045100001384FEA540483EA05030AD084EA03020F
:104520005D08D207F3D401384FEA53034FEA54042D
:10453000F4D18E42E7D19B0E0122386803F01F01AF
:104540001F2B02FA01F209D9796AD0F8203161EA09
:1045500002021340F0BCC0F820317047396AD0F82D
:10456000243161EA02021340F0BCC0F824317047E4
:104570002083B8EDF8B5054604F020F9EB681C6817
:10458000A3691A8810062ED44FF080761A88110776
:104590002DD4A36921681A88083302F0200223F879
:1045A000082C33F8082C42F0800223F8082C33F84A
:1045B000082C920648BF2369A3610E611A88170769
:1045C000E9D51A8802F020021A801A8842F0800287
:1045D0001A801A8890064CBF23690833A3610E61C4
:1045E0001A881206D2D5BDE8F84004F0EFB81A8850
:1045F00012F47C5F02D0A3692168E2E75868FFF7F4
:10460000D9FBA36907465888FFF7D0FB3946024615
:10461000284601F0F3FAEEE7FFF7ACBFF8B50F4C10
:1046200001270F4804F1900607F0E2FE02E00C3487
:10463000B4420ED02368002BF9D02579002DF6D195
:1046400027710C3454F8040C984704F8085CB44201
:10465000F0D10348BDE8F84007F0D6BE74560020FC
:1046600004570020F8B5C8B106460F4607F0D8FE3B
:1046700000220B4D1346AC580C3209493CB10133B2
:104680000C2BF8D1002407F0D9FE2046F8BD03EB2F
:1046900043039B00CC18CE50A760F4E70446F4E730
:1046A0007456002048B110B5044607F0B9FE002347
:1046B0002360BDE8104007F0C1BE704708B504484C
:1046C000902107F053FF0348BDE8084007F082BE81
:1046D0007456002004570020014807F089BE00BF2F
:1046E00004570020014807F08FBE00BF0457002088
:1046F00038B5DC1C8C420BD81C46054602701A46A5
:1047000002346B700499023007F0A6FE281938BDF8
:10471000002038BD70B590E84400531C9E4203D879
:104720009AE0B24200F0D880147813460132002C8F
:10473000F7D0FF2C00F0D0805A7802321A44B242EF
:1047400000F2CA8002601C785D78013C3A2CE4D803
:104750000FF2040E5EF824F0BB2D00000B2C0000BD
:10476000AD2D00000B2C00000B2C00009F2D000035
:104770000B2C00000B2C00000B2C00000B2C00005D
:104780000B2C00000B2C00000B2C00000B2C00004D
:104790000B2C00000B2C00000B2C00000B2C00003D
:1047A0000B2C00000B2C00000B2C00000B2C00002D
:1047B0000B2C00000B2C00000B2C00000B2C00001D
:1047C0000B2C00000B2C00000B2C00000B2C00000D
:1047D0000B2C00000B2C00000B2C00000B2C0000FD
:1047E0000B2C00000B2C00000B2C00000B2C0000ED
:1047F0000B2C00000B2C00000B2C00000B2C0000DD
:104800000B2C00000B2C00000B2C00000B2C0000CC
:104810000B2C00000B2C00000B2C00000B2C0000BC
:10482000912D0000792D0000672D0000592D00000A
:104830000B2C00000B2C00000B2C00004B2D00005B
:10484000352D0000042D7FF468AFD3F802308B6162
:10485000531C9E423FF668AF70BD042D7FF45DAFE0
:10486000D3F802304B6158E7042D7FF456AFD3F8EC
:104870000230CB6051E7012D7FF44FAF9B7881F878
:10488000203090E8440048E7012D7FF446AF9B7844
:10489000032B3FF642AF81F8213090E844003CE71B
:1048A000042D7FF43AAFD3F80230CB6135E7032D06
:1048B0007FF633AFD3F802300B612EE7032D7FF67E
:1048C0002CAFD3F802308B6027E7042D7FF425AF9F
:1048D000D3F802304B6020E770BD00BF2DE9F041F6
:1048E0008AB0182500F1340604460AAB04AA006811
:1048F0000F4643F81C5D31460193002300924FF4AC
:104900000A7206F019FE054609F0C2FFA369626942
:10491000C01A904250D2EF2D03DD94F83430022BB0
:1049200004D0002528460AB0BDE8F081D4F83880CC
:10493000A06AFFF73FFA8045F3D194F83620062AA3
:10494000EFD104F1200104F1500007F017FE002818
:10495000E7D104221A4904F5907007F00FFE0028F1
:10496000DFD12421384607F001FE6B1E616C04F58F
:1049700092721E4404F12C08396039462663404681
:10498000E262FFF7C7FE97F82130002BCAD09A07E2
:10499000394640464CBF04F1600304F1A003E362D2
:1049A00097F82130DB074CBF04F21F1304F19F037B
:1049B0002363FFF7AFFEB5E74FF0FF35B2E700BF67
:1049C000CC1900202DE9F04F00F1340704468DB0DA
:1049D0004FF40A7100F12008384607F0C7FD06259C
:1049E0000123A06A84F8365084F8343084F83530D6
:1049F000FFF7E0F980232A46A063E387414604F1EC
:104A0000500004F5927507F027FD04F5907004221C
:104A1000704907F021FD2379092B00F28A80DFE835
:104A200003F08B88969EB888C3CE880504F518726B
:104A300004F5177628460423711B00923222FFF7F3
:104A400057FE0546002874D003234FF0FF398DF838
:104A50000D300DF10D00711B012335220090284609
:104A6000FFF746FE0546002863D09DF80D3003F0A1
:104A7000FD03012B1CD109F00BFFD4F86432A061B7
:104A80005BB104F51970711B042333220090284692
:104A9000FFF72EFE054600284BD04F48711B06231A
:104AA000372200902846FFF723FE0546002840D015
:104AB0004FF40A70FFF77AF90DF1300E711B0223E3
:104AC0002EF8220D39222846CDF800E0FFF710FE1F
:104AD000054670B30DF1300B4FF0010A4146062236
:104AE0000DF111000BF820AD07F0B6FC711B284644
:104AF000CDF800B007233D22FFF7FAFD0546C0B10F
:104B0000FF2306AE18210370304607F02FFD18234F
:104B1000EA1B20684FF486440193009652443946BC
:104B20000023ADF818A0CDF82090ADF81A4007F09A
:104B300065F80DB0BDE8F08FD4F86C220723D4F8E7
:104B4000789204F5177622648DF80D3081E7012301
:104B500004F517764FF0FF398DF80D3079E704F53D
:104B6000247204F51776284604230092711B322222
:104B7000FFF7BEFD0028DCD004F52775311A0423A9
:104B800036220095FFF7B4FD054600287FF45CAFA0
:104B9000CFE7D4F86C220423D4F8789204F5177682
:104BA00022648DF80D3054E7D4F86C220323D4F836
:104BB000789204F5177622648DF80D3049E70322C8
:104BC000D4F86C3204F517764FF0FF398DF80D20CC
:104BD00023643EE7CC190020F825002010B50446D8
:104BE0000171092906D8DFE801F01328383D4A573A
:104BF0006778280610BDFFF7E5FE0120A1694FF494
:104C0000FA524FF47A6320732161A260636110BD90
:104C1000D0F86C32002B66D1D4F8B40205F048FD10
:104C2000022863D000232068637106F063FBD4F888
:104C3000B802BDE81040FFF735BDD0F8B40205F06A
:104C400037FD012805D00022D4F8B402114605F042
:104C5000CBFCA36A0133A36210BDFFF7B3FEE36987
:104C6000636110BDFFF7AEFE0120A1694FF47A62C7
:104C70004FF47A53207321616261A36010BDD0F8B4
:104C80006C12D0F8B40200F0A7FE09F001FE4FF458
:104C90007A73A061A36010BD83690622D0F88002F8
:104CA0002361431C227316D0FFF784F84FF47A7304
:104CB00003FB00F0A06010BDFFF784FE0723D4F8CB
:104CC00084022373FFF776F84FF47A734EF660226E
:104CD00003FB00F06261A06010BDFFF773FE0123CB
:104CE000D4F88802EDE7FFF76DFE95E70022D4F8CF
:104CF000B402114605F078FC94E700BF10B50446F5
:104D0000D0F87022D0F86C12D0F8B40205F06CFC28
:104D1000D4F87412D4F8B40205F076FCD4F87C12FE
:104D2000D4F8B40205F07CFCD4F8B402022105F0FA
:104D3000CBFC20460521FFF751FFD4F8BC323BB134
:104D4000D4F8C8222046D4F8B412BDE81040184761
:104D500010BD00BF10B50446FFF7BEFC0021204681
:104D6000FFF73CFFBDE81040FFF7BCBC0279531EC3
:104D7000F0B504468DB0082B3ED8DFE803F04E5660
:104D8000056F8805053F0500063A012A40F2B1800B
:104D900009F07EFD2369A268C01A904280F09D80D0
:104DA000204603A9FFF79AFD421C00F0A9800028C5
:104DB00022DD9DF82C30052B40F09480039BDBB165
:104DC000069BCBB10A9DBDB1A36923616B1C40F06A
:104DD0009B800895099503AD04F51B7694F86872DD
:104DE0000FCD0FC60FCD2D680FC63560002F5AD0DE
:104DF00020460421FFF7F2FE0DB0F0BD0921FFF7B8
:104E0000EDFED4F8C032002BF6D0D4F8C4222046F0
:104E1000D4F8B41298470DB0F0BD0221FFF7DEFEC2
:104E2000D4F8C032002BF0D1E6E703A9FFF756FD16
:104E3000411C59D00028DFDD9DF82C30022BDBD13E
:104E400003AD04F524760FCD0FC60FCD2D680FC628
:104E5000204635600321FFF7C1FECDE709F018FDBC
:104E6000A369A268C01A90421DD20022D4F86C1225
:104E7000D4F8B40200F04AFC01280546BCD1204613
:104E8000FFF7A0FD29462046FFF7A8FEB4E7D0F8BB
:104E9000B40205F00DFC50B96379012BACD120466A
:104EA000FFF758FFA8E72046FFF728FFA4E70CAA62
:104EB000182303A9206842F8283D00238DE8060046
:104EC0004FF40A7204F1340106F036FB09F0E0FCFD
:104ED0002369A268C01A90428ED9217B2046FFF731
:104EE0007DFE89E7062B87D120460121FFF776FE5C
:104EF00082E7D0F8B40205F0DBFB0028CCD047E70E
:104F00002046FFF75FFD77E72846FEF753FFB328FB
:104F10001FD84FF034430A93089BC3B1099B0A98EA
:104F200013B185423FF457AFFEF744FF4008FEF748
:104F300041FF08900A98FEF73DFF05460A98FEF7E4
:104F400039FFA5EBD000FEF735FF099043E70A983B
:104F5000EAE70A98FEF72EFF024B9842DCD9024B93
:104F60000A93D9E79BC420000020C49B2DE9F0439D
:104F7000054687B0FFF7B0FB002D5AD02E68002EF3
:104F800057D0304605F0DEFC8146002851D02C4C2D
:104F90006779002F4DD118214FF00108684607F0BE
:104FA000E5FA4FF488433A46404602210297CDF88D
:104FB0000490ADF80080ADF8023006F0CBFC206024
:104FC000002836D06946182207F044F870BB062244
:104FD00004F12001304605F09DFB38BB21461948FD
:104FE000FFF740FBC4F8B80200B34FF47A63C4F88B
:104FF000B462E3616B68C4F86032A868FEF7DAFE59
:10500000D4F860222B7B002AC4F86402204684F87E
:1050100068320CBF01210821FFF7E0FD84F805800C
:10502000FFF760FB204607B0BDE8F083206806F07C
:1050300061F9FFF757FB002007B0BDE8F08300BF20
:10504000085700205D32000010B14379012B00D0D9
:105050007047FFF77FBE00BF00B14079704700BFC7
:1050600038B590B10546FFF737FB094B5A79012A4D
:1050700004D00024FFF736FB204638BDD3F8B40235
:1050800085420CBF1C460024F4E70446F4E700BF49
:105090000857002089B180B138B505460C46FFF7A6
:1050A0001BFB05F51B750FCD0FC495E80F0084E8B9
:1050B0000F00BDE83840FFF715BB704718B119B9AC
:1050C0004FF47A63C3617047C1617047037A022B62
:1050D0002DE9F04704462FD0032B14D0012B01D02B
:1050E000BDE8F0870023D0F8202200F11C01006801
:1050F00006F0F0FDD4F82032984200F081800323BE
:105100002372BDE8F087FFF7E7FA0025206806F074
:10511000F1F86068FFF7C6FA2572FFF7E3FAD4F8F2
:105120001C12D1B3B4F82882B8F1010F4FD0B8F1F6
:10513000020F7ED0284631E000F11C0100234FF41D
:105140000072006806F06AFA061E60DDA28BB4F8F1
:1051500024329A42C4D1B4F91E30002BC0DA0B2E8F
:10516000CDDD0B2502E00135B542C8D263191B7FA6
:10517000C02BF8D105F11801B4F8263221440F1DD7
:105180007A88934203D1BA88B2F5807F0BD00B3571
:105190007889FEF70BFE0544E5E70846E3682269D7
:1051A000BDE8F04718471022B3F5807FD4F81C32D1
:1051B00011445DD1F96804EBC3020C2B1162D7F8DE
:1051C0000610D1619BD80133C4F81C32DFE704F12B
:1051D0008C0927464E461821304607F0C7F93B6A2E
:1051E000D4F81C120135B36008377B69A942A6F8D0
:1051F000008006F11C0646F8043CECD84846CDE792
:1052000009F046FB022360612372BDE8F08709F0D4
:105210003FFB6369C01AB0F57A7F7FF661AFA3697F
:105220000133052BA3613FF66AAF01232372BDE86A
:10523000F08704F1EC0604F12007A6F1080018211C
:1052400007F094F9394626F8088C304610220135CB
:1052500007F002F9D4F81C1257F8043C1C36A94296
:1052600007F1140746F80C3CE7D804F1E40095E791
:1052700003EB830304EB8300203007F0EDF8D4F850
:105280001C32D7F8061003EB8302082B04EB8202D2
:10529000D16198D933E700BF2DE9F04F4FF4007387
:1052A0008BB005460293FFF717FABDB12B6AABB17D
:1052B000A86907F07DF90138FD280FD81822294682
:1052C00004A807F0C9F804A806F07AFC012800F049
:1052D000AD80DFF8E49199F808402CB1FFF702FAAD
:1052E00000200BB0BDE8F08F4FF40B71484607F07B
:1052F0003DF9AB8B296A6A6A012BC9F80C10C9F811
:105300001020A9F82832C9F81C4200F08A80022B2C
:10531000E4D14FF4E053A9F82632664C0022022172
:10532000BDF810002388C9F818200133624E9BB2E3
:105330002380A9F8243206F00DFBC9F800000028EC
:10534000CCD0042406225D4902AB009406F070F92B
:10535000306802AB00940522584906F069F9BDF89F
:1053600012301BB94FF45453ADF8123004A918226F
:10537000D9F8000006F090FD01304F4E00F08C800F
:1053800006F11C004FF4007107F0F0F8A969012242
:10539000B6F824524FF480730DF12808002406F16A
:1053A0002900F28306F1280BB583338448F81C4D9D
:1053B000B6F826A207F008F94246414906F129004D
:1053C00007F010F906E000208CF828300EF10104F7
:1053D00007F008F9601C384D584405F1280707F01C
:1053E000E7F806EB040C0346424604EB000E344992
:1053F0000028E8D12744012611342946A7F801A046
:10540000FB703E712F48C5F82042FFF72BF968600A
:10541000002841D02E72FFF765F928460BB0BDE891
:10542000F08F4FF48073A9F8263276E7059805F0DF
:1054300093FA0446002838D0002614B3BDF8103083
:1054400020460BB1DA0706D505F012F90690A8B987
:10545000BDF810300BB19B0706D506AA00212046E7
:1054600005F010F901281CD0059B002BE6D1771C14
:10547000304604F0D7FF04463E46DEE70123ADF890
:10548000103004A806F09CFB00287FF427AF2046CC
:1054900005F058FA05901CE7D9F8000005F02AFF3E
:1054A0001CE70223ADF81030EBE705F0C5F8044621
:1054B000C2E700BF005C0020D459002017E50300BC
:1054C000D0190020BD35000010B50446006805F075
:1054D000FFF9237B834207D0207301462369626969
:1054E0002068BDE81040184710BD00BFF8B505465C
:1054F000FFF7F2F835B12B6823B16B6813B10E4C8E
:1055000026790EB10020F8BD1821204607F02EF8AC
:105510002F686A682146AB6808482760226163618A
:10552000FFF7A0F8A0600028ECD0012326732371B8
:10553000FFF7D8F82046F8BD045C0020B939000018
:1055400005F0F8B970B50F4E00F1F005044602E021
:105550001834AC4214D0A368002BF9D009F098F9A4
:10556000E368C01AB042F3D9236918460BB104F0BE
:1055700069FD20461834182106F0F8FFAC42EAD144
:1055800070BD00BF804F12002DE9F0470023164682
:1055900004460F468046024691681832B9424AD006
:1055A00001330A2BF8D1234600259A68183312B329
:1055B00001350A2DF9D10025A946AA4606E00AF1CF
:1055C000010A08F11808BAF10A0F14D009F060F9BD
:1055D000D8F80C30C01A4845F1D955460AF1010AED
:1055E00009F056F9D8F80C30BAF10A0F08F118088A
:1055F000C3EB0009EAD14FEA450909EB050804EBC2
:10560000C808D8F8100030B104F01CFD0023C8F819
:105610001030C8F814304D443146062204EBC5055D
:105620002846AF6006F018FF09F032F92B46E86013
:105630001846BDE8F08703EB43033146062204EB2E
:10564000C304204606F008FF09F022F92346E06073
:105650001846BDE8F08700BF08B301B3F8B50746A8
:105660000E4601F1F0050C46B965204618341821A4
:1056700006F07CFFAC42F8D132460C490C4809F0E8
:105680003FF9C6F8F00068B139460A4803F04AF815
:10569000B0FA80F3C6F8F4005B095842F8BD4FF049
:1056A000FF3070474FF0FF30F8BD00BF353A0000C3
:1056B000E0930400313A000010B5846D34B1D4F8A1
:1056C000F00009F03DF90023C4F8F03010BD00BF30
:1056D000806D0023024610B5946818328C4205D0C4
:1056E00001330A2BF8D10024204610BD03EB4303FD
:1056F0000622054900EBC304204606F03FFF0028C0
:10570000F1D0204610BD00BFDC19002070B5D0B12B
:10571000846D94B104460E46154603F04FF83146A9
:105720002046FFF7D5FF60B14DB10146062228465D
:10573000012406F091FE03F049F8204670BD0124D3
:10574000F9E70446F7E70446204670BD2DE9F0432B
:1057500085B00B46019149691B2904D9DC68228870
:10576000B2F5807F05D0184604F06CFC05B0BDE8AA
:10577000F0832279062AF6D16288082AF3D1627969
:10578000042AF0D11C290546D0F8589008D10622E9
:10579000284602A904F0A6FF064638B1019BE2E7BD
:1057A000C1F11C0101A804F0E1FCF0E704F10807D5
:1057B000062202A9384606F0E1FE0028EED00622B5
:1057C0003449384606F0DAFE0028E7D0D4F80E1047
:1057D000EB6AD4F8188099424DD0984515D03346DD
:1057E000AA6D4FF0180E01E00A2BD7D00EFB03264E
:1057F0000133B0688142F7D106223946304606F0BF
:105800002BFE09F045F8F06005E03A46A86DFFF779
:10581000BBFE064650B1336943B132464FF40061D6
:10582000284600F03BFA002333617361E388B3F547
:10583000807FB3D1EB6A9845B0D1022304F1120600
:1058400000210622E3713046A171394606F004FEBC
:1058500002A93846062206F0FFFDD4F80E10EB6AC6
:105860003246A1612846C4F80E3040F60601019B7D
:1058700000F014FA7AE721B9AB6DD3F8F830984507
:10588000D4D10123D9F8F40085F8543002F0C8FFD0
:10589000CCE700BFD4190020002849D02DE9F043FF
:1058A000D0F8588083B0B8F1000F22D00546894661
:1058B00002F084FF01211C2004F00CFA0646B0B16E
:1058C000C4680023082104224FF0010E0627A170AE
:1058D0002846627169463A462370E370A37184F8E2
:1058E00001E084F807E0277104F0FCFE20B102F02B
:1058F0006DFF03B0BDE8F0833A460E4904F1120093
:1059000006F0AAFD3A46694604F1080006F0A4FD37
:10591000EB6AC4F81890C4F80E300BB9C8F8F890C8
:1059200033462846044A40F6060100F0B7F9DEE7A0
:10593000704700BFDC190020D41900202DE9F04782
:10594000D0F8588007460D469146002402F036FFF5
:1059500043469A681833AA4219D001340A2CF8D168
:105960001C4A2946B86DFFF70FFE0646006908B1CC
:1059700004F068FBC6F8109008F08AFF29467061B1
:105980003846FFF789FFBDE8F04702F01FBF04EB80
:10599000440608EBC606336906F1100A9BB108F00D
:1059A00077FF7369C01AB0F57A7FDAF8000008D87B
:1059B00048B104F047FBC6F81090BDE8F04702F08C
:1059C00005BF0028D4D1182303FB0484C4F8109029
:1059D000D2E700BFDC19002038B504460D4606F0BA
:1059E0001FFD29462046FFF757FFBDE8384006F067
:1059F00025BD00BF70B5846D002502F0DFFE04F107
:105A0000F006236918461BB104F01CFB2561656193
:105A10001834B442F5D1BDE8704002F0D7BE00BFE3
:105A2000B1F1200C2DE9F04F3ED402F12003E646FF
:105A300033F8204CBEF1200E33F81E1C03F1200376
:105A400033F83C5C214433F83A4C33F8387C294431
:105A500033F8366C33F8345C214433F8324C33F885
:105A600030BC394433F82EAC33F82C9C314433F835
:105A70002A8C33F8287C294433F8266C33F8245CCC
:105A8000214433F8224C5944514449444144394457
:105A90003144294421440844CAD54FEA5C114B1CC7
:105AA000ACEB411102EB4312B1F1080718D402F13B
:105AB00008033E4633F8084C083E33F8061C03F151
:105AC000080333F80C5C214433F80A4C2944214480
:105AD0000844EFD5F9084B1CA7EBC10102EBC30248
:105AE0008D1E0CD42B46114631F8024B023B20444C
:105AF000FAD569084B1CA5EB410102EB430209B141
:105B000013781844BDE8F08FF0B5056983B00746F7
:105B10000C468D424FF00006C26828BF0D4629464C
:105B2000304624B1641BFFF77BFF064614B93046AC
:105B300003B0F0BD3F6815F00105FA682B4605D1AA
:105B400039692546A14298BFCD18E8E712F8010B44
:105B5000013C00920192FEF729F94FF0FF33064411
:105B6000009AEDE708B5FFF7CFFF4FF6FF73034448
:105B70001A0C03D012FA83F31A0CFBD1D84380B26B
:105B800008BD00BF70B515460E461146FFF7BCFFB5
:105B900004462846FEF70AF94FF6FF7333441C44C7
:105BA0002044030C03D013FA80F0030CFBD180B225
:105BB00070BD00BF38B51C4615460A461946FFF7AA
:105BC0002FFF2A462146FFF72BFF4FF6FF730344B2
:105BD0001A0C03D012FA83F31A0CFBD1D84380B20B
:105BE00038BD00BF014B93F9000070471C5C0020DA
:105BF000014B1870704700BF1C5C0020002818BFC4
:105C00000E2A0CD959B170B582B00D461446062241
:105C10006946064604F066FD10B102B070BD7047DB
:105C200006226946A81806F0A9FC0028F5D0A4F1C0
:105C30000E01012205F10E0004F098F80028ECD0C6
:105C40002B78FF2B12D0012B03D1836943F004037F
:105C50008361AB89B3F5C16F11D0082B16D04DF617
:105C60008652934210D004F0EDF9D6E76B78FF2B03
:105C7000EFD1836943F0020383612B78E3E7044BA0
:105C8000014630469847C8E7024BF9E7024BF7E771
:105C90003D3C000081620000A94F00002DE9F04763
:105CA00005460F4690461C4643B15A6983689A429E
:105CB00004D92046BDE8F04704F0C4B901210E2004
:105CC000D5F80CA004F006F806460028F1D0D0F86C
:105CD0000C900622284609EB020104F003FD00287F
:105CE000E7D141460622484606F0B6FB3846FEF7A5
:105CF0005DF8A9F80C0024B13046214604F0EAFA18
:105D00000646DAF80C3031462846BDE8F047184719
:105D100070B5C66882B05EB306F120010446FFF795
:105D20009BFC054610B1284602B070BD204604F029
:105D300095FB06F58E71204602F052FF054630B104
:105D40000D4A284613680133136002B070BD0B4939
:105D5000204602F09BFB40214FF0FF3301220091CF
:105D60002046074904F0E2FE204603F06FFFE7E714
:105D70004FF0FF35D7E700BF205C0020B01A0020AD
:105D8000901A002010B5044602F070FC204604F082
:105D900079FB204602F060FF2046FFF78DFC024AA7
:105DA0001368013B136010BD205C0020FFF722BE8A
:105DB000C16A10B582B039B906226946044604F0BA
:105DC00091FC28B102B010BDFFF766FD02B010BD16
:105DD00003466A4620464FF6FF71FFF75FFF02B0A9
:105DE00010BD00BFF0B50C4683B005460146204605
:105DF000174600F0E1FE98B904F0F002E02A1DD049
:105E0000214628466A466E46FFF780FC78B13B463D
:105E1000324628464FF40061FFF740FF03B0F0BD63
:105E20000622154968466E4606F016FBEFE73A462D
:105E300021462846FFF782FD03B0F0BD034601214D
:105E40005E2220468DF800106E468DF802208DF8F7
:105E50000130FDF7AFFFC0F3064320468DF8033055
:105E6000FDF7A8FF030A20468DF80430FDF7A2FFD6
:105E70008DF80500CBE700BFD41900202DE9F041D3
:105E800084B01E46054601921378FF2B1DD00F46A5
:105E900001A902F0A3FF0199284602F0EDFE044695
:105EA000002852D094F82030012B40D022690AB348
:105EB000032B43D004F110023346284648F2DD613B
:105EC000FFF7ECFE04B0BDE8F0811446332392F8EE
:105ED0000CE0577B02AAA07BE17B8DF808308DF89F
:105EE00009308DF80AE08DF80B708DF80C008DF8F4
:105EF0000D10E1E7B4F81480B8F1000FD8D10123F8
:105F000084F8203008F0C4FC10226062394604F1A5
:105F10003000C4F82C8006F09FFA019B42463946B7
:105F2000284602F08FFF94F82030012BC0D1314673
:105F3000204602F029FF04B0BDE8F081042384F874
:105F4000203008F0A5FC6062B4E70199284602F011
:105F500061FF012806D0284602F022FF0446E0B186
:105F600001909FE7034622460199284602F0C4FEAD
:105F70004FF00008044608F08BFC3946102260629E
:105F800004F13000C4F82C8006F066FA4246019B0A
:105F90003946284602F056FF84E7304604F052F8AE
:105FA00090E700BFC368F0B55A6985B00191CAB1E6
:105FB0009DF805304FF0010E00275E2603F07F03A9
:105FC0009DF806509DF8074002A98DF80B308DF81A
:105FD00008E08DF809708DF80A608DF80C508DF886
:105FE0000D40904705B0F0BDC368F0B51A6985B0A3
:105FF0000191CAB19DF805304FF0010E00275E26D1
:1060000003F07F039DF806509DF8074002A98DF824
:106010000B308DF808E08DF809708DF80A608DF866
:106020000C508DF80D40904705B0F0BDC3685A691B
:10603000BAB10B46F0B583B00F7B4E7B33249D7B0A
:106040006946DB7B8DF800408DF801408DF80270C9
:106050008DF803608DF804508DF80530904703B03B
:10606000F0BD7047C3681A69BAB10B46F0B583B08A
:106070000F7B4E7B33249D7B6946DB7B8DF8004094
:106080008DF801408DF802708DF803608DF8045092
:106090008DF80530904703B0F0BD704780B10369BB
:1060A00010B41C78012C06D11B6C23B11B6813B1F2
:1060B0005DF8044B18474FF0FF305DF8044B704714
:1060C0004FF0FF30704700BF80B1036910B41C78F7
:1060D000012C06D11B6C23B15B6813B15DF8044B36
:1060E00018474FF0FF305DF8044B70474FF0FF301A
:1060F000704700BF10B5044682B018B10369197823
:10610000012903D094F8240002B010BD1B6C002BB1
:10611000F8D01B68002BF5D00DF106029847002837
:10612000F0D1BDF80600C0F3800002B010BD00BF82
:10613000F0B583B000234FF40042054602AE194685
:1061400042F21074C76826F8023DFFF7BDFF01E078
:10615000013C40D0324600212846FFF79FFFBDF9A1
:106160000630002BF4DBFB6923B12846984708B1C1
:1061700003B0F0BD324600212846FFF78FFFBDF87F
:1061800006200021284622F4B0521204120C42F4D8
:106190009052FFF799FF08F07BFB04462B691978B2
:1061A000012902D0002003B0F0BD1B6C3246284606
:1061B000002BF7D01B68002BF4D098470130F1D0AA
:1061C000BDF806309B06EDD408F062FB001BB0F56D
:1061D000FA6FE3D3E6E7FB69ABB12846984700289E
:1061E000C6D1324621462846FFF758FFBDF80620A3
:1061F0002146284622F4B0521204120C42F4905266
:10620000FFF762FFCEE7324621462846FFF746FFFA
:10621000BDF806202846214622F4B0521204120C82
:1062200042F49052FFF750FF2046A1E72DE9F043DA
:106230001C46002387B08846E56891460646AB7049
:10624000EB7010B1036A9B0715D461692046FFF714
:1062500089FC6880002540274A4641460123029474
:1062600030460595049503958DE8A00000F054FF95
:1062700007B0BDE8F083616900F0F8FB0028E4D1C5
:10628000A36943F02003A361E4E700BF2DE9F041D7
:106290000E4651698EB013462329019227D924292D
:1062A000074601AC29D1204603F0EEFE0130019BE8
:1062B0001DD0D3F80C800021012098F8112004F0A3
:1062C00037FD054690B1836983B108AB02AA08F196
:1062D0000801384600F0D2FB20461C2103F046FF9F
:1062E00008AA02A9AC693046019BA047019B184649
:1062F00003F0A8FE0EB0BDE8F081C1F124012046F4
:1063000003F034FF019B2046596903F0BDFE0130C4
:10631000019BCED1EBE700BFF0B583B004460E463B
:1063200015460898019303F08DFE01989CB190B139
:1063300004210DEB010003F0A7FE013001980AD003
:106340008369AF689B06B668C56808D44169FFF7E2
:1063500009FC20B1019803F075FE03B0F0BD2146A1
:10636000304600F029FC0028F4D106F0F003E02BC1
:10637000F0D02B78033B092BECD801A252F823F084
:10638000F5480000ED480000454800004548000081
:1063900045480000C148000045480000454800004D
:1063A000AB480000994800006B78012BD2D82046FA
:1063B000019A0921FFF76AFFCFE76B78002B39D0EC
:1063C000012BC7D108212046019AFFF75FFFC4E7E0
:1063D00001984369072BBED92146384600F0ECFBF3
:1063E0000028B7D107F0F003E02BB3D02870324675
:1063F00039462046019BFFF719FFAEE7697800296F
:10640000A8D1E0E76B780C2BA4D8DFE803F00907EC
:10641000110F0D0B09070709070907000221D2E731
:106420000621D0E70521CEE70121CCE70421CAE708
:106430000321C8E70721C6E72DE9F04F83B0019398
:10644000BBB1DC681746E28822F0E00272B9627ADA
:1064500005460E46012A63D0D4F80C802946D4F8AC
:106460001090404600F0A8FB30B1019B184603F0A5
:10647000E9FD03B0BDE8F08F08F0E003E02BF4D0B5
:106480002946484600F098FB0028EED109F0F003B9
:10649000E02BEAD0019B9A6912F0060AE6D1514638
:1064A000082003F017FC02460028DED0D0F80CB01C
:1064B0000C2E8BF804A08BF805A08BF806A08BF8A7
:1064C00007A039D1042F37D1002D37D0009028896B
:1064D000FDF76CFCABF80400009A8BF800608BF8B9
:1064E0000170237801999B00486903F03C0303F194
:1064F0000804844208D2C0F1080101A8009219449E
:1065000003F034FE0199009A104603F0E3FE0446BE
:1065100003464246494628460194FFF787FEA8E70E
:106520002278920002F03C02A15C12299ED8084A0F
:10653000CA40D2079AD58FE70C2ECED138460092AA
:10654000FDF734FCABF804000027009AC5E700BF54
:1065500001E707002DE9F04385B000268846914603
:106560000C9D07464FF46851EC682846AA8AA6702D
:10657000E6701E46FFF706FB4A4641463A2324F8DA
:10658000020F384600960294019501F06BFD05B0AC
:10659000BDE8F0832DE9F04190B003930BB10446C0
:1065A00040B9169803F04EFD039803F04BFD10B070
:1065B000BDE8F0810D4603A80421164603F064FDF2
:1065C0000130EED0039B083506F108074FF46851FF
:1065D0009A8A1846D3F80C80FFF7D4FA29463A462F
:1065E0001023FFF7E7FA0028DBD198F80030862B5C
:1065F0004DD00ED9882B00F08A807FD3892BD0D143
:1066000016993A46039B20460091294603F0FCF96F
:10661000CDE7022B57D0802B42D0012BC1D198F867
:106620000130042BBDD8DFE803F02E032E03300029
:106630000225039B59693729B3D9382970D103A89A
:1066400003F022FD0130ACD0039B00210220DF6863
:10665000BA7B04F06DFB06460028A2D08369002BAC
:106660009FD00AAB04AA07F10801204601F07EFA88
:1066700003A8302103F07AFD0AAA04A9B4692846C8
:10668000039BA0478DE70625D3E70425D1E716999C
:106690003A46039B20460091294602F02BFF86E7ED
:1066A0008121034620462A4688F80010347A03994F
:1066B000FF2C009114BF39460021FFF74BFF1698BD
:1066C00003F0C0FC73E7D4F87831002B3FF469AFD6
:1066D000039B03A80821DD6803F0D6FC01303FF4DA
:1066E00060AF6868FDF766FBD4F8783101469842E0
:1066F000BFF457AF204603F0A7FE52E716993A467B
:10670000039B20460091294602F046FD4FE716996B
:106710003A46039B20460091294602F00BFE46E7CD
:10672000C1F1380103A803F021FD039B596986E7F5
:106730002DE9F04F83B00C9CFCB189466169984605
:106740001746B1F59A6F06461AD8E568AB7905F198
:10675000080A3A2B20D02B7EFF2B47D005F11804D6
:106760002B7AFF2B05D010225146274805F006FF53
:10677000E0B90C9C204603F065FC03B0BDE8F08F47
:10678000C1F59A610CA803F0F1FC0C9CE568AB79AB
:1067900005F1080A3A2BDED1AB88002BEAD095F838
:1067A0002830DA09E6D0892BD5D1E3E7002108208B
:1067B00003F090FA05460028DBD0D0F80CB0404634
:1067C0008BF800908BF80170FDF7F4FA0C99CBF878
:1067D0000400284603F07EFD0546009052462146FF
:1067E000304600230C95FFF7B5FEC6E7B9F1020F5E
:1067F00004D0B9F1040FBDD1022FBBD151463046B0
:1068000001F050FB0446ABE7901A0020F8B50446AF
:1068100015460E4601F0D2FF6A6963681344B3F56A
:10682000A05F14D80021042003F054FA78B16768FF
:1068300029466B69C6603B44636003F04BFD01462B
:10684000204603F063FD01F0C1FF0020F8BD01F018
:10685000BDFF4FF0FF30F8BD70B50568A5B1EB681E
:1068600004462E680B6001F0A9FF1EB163687269CF
:106870009B1A63600023204629462B6003F052FDDB
:1068800001F0A4FF304670BD2E46FBE770B5049CB6
:106890000546A3B19CB116461A4661B129290ED10D
:1068A00043699B889B070AD52346314601F05EFE6B
:1068B00038B9002070BD43699B88D90708D46FF0B0
