:0200000460009A
:100000004643464200000156000000000101020084
:1000100000000000000000000000000000000000E0
:1000200000000000000000000000000000000000D0
:1000300000000000000000000000000000000000C0
:1000400000000000010403000000000000000000A8
:100050000000800000000000000000000000000020
:100060000000000000000000000000000000000090
:100070000000000000000000000000000000000080
:10008000EB04180A063204260000000000000000FD
:10009000050404240000000000000000000000002F
:1000A0000000000000000000000000000000000050
:1000B0000604000000000000000000000000000036
:1000C0000000000000000000000000000000000030
:1000D00020041808000000000000000000000000DC
:1000E0000000000000000000000000000000000010
:1000F0000000000000000000000000000000000000
:10010000D8041808000000000000000000000000F3
:100110000204180804200000000000000000000095
:1001200000000000000000000000000000000000CF
:10013000600400000000000000000000000000005B
:1001400000000000000000000000000000000000AF
:10015000000000000000000000000000000000009F
:10016000000000000000000000000000000000008F
:10017000000000000000000000000000000000007F
:10018000000000000000000000000000000000006F
:10019000000000000000000000000000000000005F
:1001A000000000000000000000000000000000004F
:1001B000000000000000000000000000000000003F
:1001C000000100000010000001000000000000001D
:1001D000000001000000000000000000000000001E
:1001E000000000000000000000000000000000000F
:1001F00000000000000000000000000000000000FF
:10020000FFFFFFFFFFFFFFFFFFFFFFFFFFFFFFFFFE
:10021000FFFFFFFFFFFFFFFFFFFFFFFFFFFFFFFFEE
:10100000D10020402C100060000000000000000013
:1010100020100060001000600000000000000000D0
:1010200000000060B8450100000000000000012041
:1010300035100060774B4FF42A01774A77485A649D
:101040001864774A99639546764A03F530337649B2
:1010500008208A42C3F854010FD0744B9A420CD234
:10106000D4430846234423F0030304330B4450F8CD
:10107000041B984242F8041BF9D16D4A6D498A421B
:101080000FD06D4B9A420CD2D4430846234423F030
:10109000030304330B4450F8041B984242F8041B2A
:1010A000F9D1664A664B9A420BD2D04311460024CE
:1010B000034423F003030433134441F8044B8B42ED
:1010C000FBD1604A4FF470015F4B116003F5307142
:1010D0005E4A43F8042F9942FBD15D4B80215D4A63
:1010E00003F8011B9342FBD15B4C4FF080375B4E02
:1010F0004FF0FF32DFF8A4A10025DFF8A491DFF85C
:10110000A481574B4349C3F800A0C4F80471C4F844
:101110000091C4F8F470C4F8F080F36923F07F0301
:1011200043F04003F361736A23F07F0343F040030D
:1011300073628A66CA660A674A6700F0E1F8494A3C
:101140006320494B4949106003221D60CAF83810DA
:1011500043F8082C4649474A4748C3F8082D0B680E
:10116000464A43F08073CAF83C0045480B60136858
:10117000444943F00103136003680B6000F0FAFA7E
:10118000C4F804714048C4F80091C4F8F470C4F87D
:10119000F08001F039FE00BF00BF00BF00BFF16E5C
:1011A0003A4A41F440513A4BF1661560C2F8085191
:1011B000C2F81851C2F82851C2F838519A6BD207B8
:1011C00008D442F61562334959651A659A6B42F0A4
:1011D00001029A632E4A304C936843F001139360E6
:1011E00000F00AF901F000FE2368132BFCD900F08F
:1011F00081FB00F059F801F0EBFD00F0EDFA01F091
:10120000FFFD2368B3F5967FFBD301F0F5FD01F0F8
:10121000E3FDFEE700C00A40AFAAAAAA070020002B
:101220000000072000000000302E006028FF0000B2
:10123000000000205C2D0160601800207C3E002032
:10124000C062002088ED00E0FC4B002031D300009C
:1012500000E400E0A0E400E000800D4000C00F408A
:1012600008ED00E014E000E018E000E00DE500000B
:10127000FCED00E00000202011E50000001000E07F
:10128000041000E0CC4500200046C3230040084085
:1012900000400D400000C056D4450020004C002006
:1012A0001B1018200C0D1113114B1249D86E0A4651
:1012B00040F4403030B4D86640F23765D86EA02490
:1012C00040F44070D8664D648C64936C1B06FCD46B
:1012D000094B40F23760A0211A4658649964936C18
:1012E00013F08003FBD1054A137030BC704700BF78
:1012F00000C00F4000400C4000800C40C84500205A
:10130000F0B5284A0020284B4FF0100C274C11272D
:10131000DFF8D8E0122620600125C2F800C0C3F82B
:1013200000E01760DFF8C8E0214FC3F800E0166066
:101330001F60204E204F166020491F60204E41F054
:101340001501204F16601F6007F540371E4E1160D3
:1013500002371E60DFF89CE01C4E1D49C2F800E019
:101360001F6016601B4F19601B4E1C4917601E60E2
:101370001B4F11601B4E1C491F60166019602560D1
:10138000BFF34F8FBFF36F8FC3F8B001BFF34F8F21
:10139000BFF36F8F52F8883C43F4403342F8883CE7
:1013A000F0BD00BF9CED00E0A0ED00E094ED00E09A
:1013B000090010001300200021000207C062002075
:1013C0001400002025000813090000101700004039
:1013D00033001013180000602F000B071900007075
:1013E00037000B171A0000702F000B133F0000107E
:1013F0002500080316002020F0B5B84B1822B84E7F
:101400000120B84948F20C7EB74D4FF0FF37B74C7A
:10141000C3F85C12C3F860520025C3F86412C3F825
:1014200068424FF40054C3F86C62B149C3F870626B
:10143000C3F87462C3F87862AE4EDA661A675A6708
:101440009A67DA67C3F88020C3F88420C3F888203D
:1014500040F20562C1F82C03C1F83003C1F834032F
:10146000C1F83803C1F83C03C1F850032946B369F9
:10147000A1481840A14B0343A148B361D6F884307A
:1014800043F00C03C6F8843002260368334303603C
:10149000036803EA0E0E9B4B4EEA0303DFF89CE25F
:1014A0000360994B4760DEF808703B40974F43F06C
:1014B00000538360C36823F07803C360036A1F404E
:1014C000934B3B43914F0362036A1F40904B3B4356
:1014D000904F43628762C762DEF8B8308E4F23F0C8
:1014E0003F0343F00103C0F8B830DEF8BC30DFF84A
:1014F00034E223F03F0343F00103C0F8BC30056140
:1015000004660767C0F8802044664767C0F88420F7
:101510000468824B24F00204814A0460C0F818E099
:10152000C66143F8041B9342FBD1754B1A681946F8
:1015300042F001021A600B68714A13F00103FAD1FC
:10154000784E022540F2F56440F2664040F299413F
:10155000754F966142F20146D56140F23545C2F8B9
:10156000004242F20124C2F810020120C2F8201207
:101570001146C2F8307207F15A47C2F8346207F5D3
:101580001377C2F84052694E694DC2F85072C2F8E2
:101590005462C2F86052C2F86442C2F8A030C2F885
:1015A000A430C2F8B0004B69554ADD07FBD50123D2
:1015B00000244FF4803011465361C2F8A040C2F8B5
:1015C000A400C2F8B0304B694D4ADC07FBD50123BB
:1015D00000244FF4003011465361C2F8A040C2F815
:1015E000A400C2F8B0304B69454AD807FBD50123A7
:1015F0000024504811465361C2F8A040C2F8A4002C
:10160000C2F8B0304B693E4ADB07FBD5D2F8003157
:1016100045F60D5121209BB250618B4200D0F0BDA8
:1016200000244FF4802001231146C2F8A040C2F8E4
:10163000A400C2F8B0304B69314ADF07FBD5012363
:101640004FF40004002011465361C2F8A040C2F8D4
:10165000A400C2F8B0304B69294ADE07FBD501234C
:101660004FF400044FF4803011465361C2F8A0409B
:10167000C2F8A400C2F8B0304B69214ADD07FBD59F
:1016800001234FF400044FF4003011465361C2F8B7
:10169000A040C2F8A400C2F8B0304B69184ADC0779
:1016A000FBD501234FF40004224811465361C2F8D0
:1016B000A040C2F8A400C2F8B0304B69104AD80765
:1016C000FBD5D2F8003145F60D5121209BB2506177
:1016D0008B4235D0184B08221A70F0BD00801F4095
:1016E000F9700100F9B00100F9100100F9000100E2
:1016F00000841F4000C00F40FFFCFF1F000300A03C
:1017000000402A401200FFFFFF37F70000FFF07C87
:1017100040000080FF000F836300020000422A4067
:1017200000432A40F05AF05A9F041830063201262E
:101730003806180A04000300D845002000802A401B
:101740004FF400044FF4802001231146C2F8A0405A
:10175000C2F8A400C2F8B0304B69044ADB07FBD5DD
:101760000120034B102150611970F0BD00402A4048
:10177000D8450020F0B4174A40274FF480314FF489
:1017800080564FF400554FF4404443F24200136931
:1017900013F0020F06D0946151619061136913F048
:1017A000020FF8D113F4005F01D15561EFE713F494
:1017B000805F01D15661EAE7002BE8DA13F4803F3D
:1017C00001D09161E3E75B0601D45761DFE7F0BC2C
:1017D000704700BF00800D403B4AF3EE096A3B4969
:1017E00000201368F0B523F001030324DFF800E1C3
:1017F0001360C2F89040D1F8E030354FDDB2C3F34A
:101800000B24344EC4EB135307EE905AA5F1550147
:10181000CEF80050B8EEE77A03EB830507EE904A66
:1018200003FB01F13B6003EB8313B8EEE75A07EECD
:10183000901A491B77EE666AB8EE677A264D07EE76
:10184000901A0B44C5ED006AF8EE677A3460C7EE73
:10185000265A224E15682249224C87EEA66A07EEC8
:10186000903A214BC6F84031F8EE677A87EEA67AB7
:1018700075EE855A76EE056AFCEEE55AFCEEE66AF0
:1018800015EE903A45EA035316EE905A77EE057A34
:10189000136001EA0541D2F81031FCEEE77A0B4300
:1018A000C2F8103117EE903AD2F81011C3F30B03BF
:1018B0000B43C2F81031136843F002031360207029
:1018C0000A4B01221A60F0BD80810D4000441F4088
:1018D000E4450020E8450020E0450020004C0020C1
:1018E0000000FF0F40E400E00DD4000008E100E03C
:1018F000DC450020304B40F6617270B5C3F8202102
:1019000040F2044501F074FA2C492D48D1F88020AA
:101910002C4C42F003022C4BC1F88020C0F86051DF
:10192000226813401BB9D0F8A8319A071AD0244B6B
:101930004FF00041234A51631A46D3F8401141F059
:101940000201C3F84011D2F840319B07FBD44FF499
:1019500000301E491B4B4FF00042086019209A636B
:1019600001F056FA1A4D0022164B4FF08041144CEC
:101970000A26996328461A601146C4F8A8614FF4F4
:10198000207201F02DFA4FF481064FF4800040F2EE
:101990004313104A10492E602864C4F85851C2F805
:1019A0000412C4F848310D4A4FF40031012311608C
:1019B000C4F8403170BD00BF00800D4000C00F4032
:1019C00000002E4000900D40001C1E008CE200E044
:1019D00000600020004C002079D500000CE100E000
:1019E0000A3C21444F43545950452048544D4C3EE5
:1019F0000A3C68746D6C3E0A3C686561643E3C74E8
:101A000069746C653E4469676974616C20496E70E5
:101A1000757420416E616C797365723C2F746974C2
:101A20006C653E0A3C7374796C653E0A7370616E36
:101A30007B706F736974696F6E3A6162736F6C75F6
:101A400074653B206C6566743A35343070783B20A1
:101A5000746F703A353070783B7D0A3C2F7374791F
:101A60006C653E0A3C2F686561643E0A3C626F64A7
:101A7000792069643D227465737422206F6E6C6FE7
:101A800061643D2264726177477261706828293B06
:101A9000223E0A3C63616E7661732069643D226D6B
:101AA0007943616E766173222077696474683D22A0
:101AB00035373022206865696768743D22333030DD
:101AC000223E3C2F63616E7661733E0A3C6D656E0B
:101AD000752069643D226D656E755F6974656D730F
:101AE00022203E0A3C646976203E0A3C7370616E97
:101AF000207374796C653D226C6566743A3630707B
:101B0000783B223E3C696E70757420747970653D37
:101B100022636865636B626F78222069643D22638B
:101B2000302220636865636B65643E3C6C6162656E
:101B30006C20666F723D22633022207374796C656D
:101B40003D22636F6C6F723A23666630303030220C
:101B50003E44353C2F6C6162656C3E3C2F73706176
:101B60006E3E0A3C7370616E207374796C653D2221
:101B70006C6566743A31313070783B223E3C696E58
:101B800070757420747970653D22636865636B625B
:101B90006F78222069643D22633122206368656387
:101BA0006B6564203E3C6C6162656C20666F723DC3
:101BB00022633122207374796C653D22636F6C6FF0
:101BC000723A23303066663030223E44363C2F6C09
:101BD0006162656C3E3C2F7370616E3E0A3C7370AF
:101BE000616E207374796C653D226C6566743A3160
:101BF000363070783B223E3C696E70757420747983
:101C000070653D22636865636B626F78222069644A
:101C10003D2263322220636865636B6564203E3C2D
:101C20006C6162656C20666F723D226332222073A4
:101C300074796C653D22636F6C6F723A233030307B
:101C4000306666223E44373C2F6C6162656C3E3CD8
:101C50002F7370616E3E0A3C7370616E20737479ED
:101C60006C653D226C6566743A32313070783B2287
:101C70003E3C696E70757420747970653D226368AE
:101C800065636B626F78222069643D226333222092
:101C9000636865636B6564203E3C6C6162656C20C3
:101CA000666F723D22633322207374796C653D2226
:101CB000636F6C6F723A23666630306666223E440C
:101CC000383C2F6C6162656C3E3C2F7370616E3ED8
:101CD0000A3C7370616E207374796C653D226C658B
:101CE00066743A34313070783B223E4469766973C9
:101CF000696F6E3A3C73656C6563742069643D225C
:101D0000647572223E3C6F7074696F6E2076616CF0
:101D100075653D22313030223E3130306D733C2FBD
:101D20006F7074696F6E3E3C6F7074696F6E207671
:101D3000616C75653D22323030223E3230306D7339
:101D40003C2F6F7074696F6E3E3C6F7074696F6E7C
:101D50002076616C75653D22353030223E3530305D
:101D60006D733C2F6F7074696F6E3E3C6F70746959
:101D70006F6E2076616C75653D2231303030223EC9
:101D8000317365633C2F6F7074696F6E3E3C2F73C7
:101D9000656C6563743E3C2F7370616E3E0A3C2F28
:101DA0006469763E0A3C2F6D656E753E0A3C737021
:101DB000616E207374796C653D22746F703A3134B2
:101DC0003070783B223E44383C2F7370616E3E0A7F
:101DD0003C7370616E207374796C653D22746F7012
:101DE0003A31393070783B223E44373C2F73706172
:101DF0006E3E0A3C7370616E207374796C653D228F
:101E0000746F703A32343070783B223E44363C2F47
:101E10007370616E3E0A3C7370616E207374796CEE
:101E2000653D22746F703A32393070783B223E44FF
:101E3000353C2F7370616E3E0A3C73637269707437
:101E400020747970653D22746578742F6A617661BB
:101E5000736372697074223E0A66756E6374696F8B
:101E60006E2047657441726475696E6F496E707556
:101E7000747328297B0A202076617220726571753F
:101E8000657374203D206E657720584D4C487474FE
:101E9000705265717565737428293B0A202072653C
:101EA00071756573742E6F6E726561647973746198
:101EB00074656368616E6765203D2066756E637446
:101EC000696F6E28297B0A20206966287468697307
:101ED0002E72656164795374617465203D3D2034D0
:101EE00020262620746869732E73746174757320BC
:101EF0003D3D2032303020262620746869732E72D2
:101F00006573706F6E7365584D4C213D6E756C6CCA
:101F1000297B0A20202020757064617465477261F6
:101F2000706828746869732E726573706F6E73655C
:101F3000584D4C2E676574456C656D656E747342C3
:101F4000795461674E616D652827646967697461BA
:101F50006C27295B305D2E6368696C644E6F646525
:101F6000735B305D2E6E6F646556616C75652C0A0F
:101F700020202020746869732E726573706F6E73F1
:101F800065584D4C2E676574456C656D656E747350
:101F900042795461674E616D652827646967697489
:101FA000616C27295B315D2E6368696C644E6F64D8
:101FB00065735B305D2E6E6F646556616C75652C64
:101FC0000A20202020746869732E726573706F6E0A
:101FD0007365584D4C2E676574456C656D656E7400
:101FE0007342795461674E616D652827646967693A
:101FF00074616C27295B325D2E6368696C644E6F77
:102000006465735B305D2E6E6F646556616C7565DB
:102010002C0A20202020746869732E726573706FFB
:102020006E7365584D4C2E676574456C656D656EB5
:10203000747342795461674E616D652827646967DE
:102040006974616C27295B335D2E6368696C644E2B
:102050006F6465735B305D2E6E6F646556616C7581
:1020600065293B0A202020207D0A20207D0A20208F
:10207000726571756573742E6F70656E28224745A1
:1020800054222C2022616A61785F696E70757473C6
:102090002672616E646F6D3D222B4D6174682E72E5
:1020A000616E646F6D28292A313030303030302C29
:1020B00074727565293B0A202072657175657374A9
:1020C0002E73656E64286E756C6C290A202073650A
:1020D0007454696D656F757428274765744172641F
:1020E00075696E6F496E707574732829272C646F3B
:1020F00063756D656E742E676574456C656D656E90
:102100007442794964282764757227292E76616C98
:102110007565293B0A7D0A0A7661722063616E76D5
:102120006173203D20646F63756D656E742E676505
:1021300074456C656D656E744279496428276D79C4
:1021400043616E76617327293B0A7661722063745E
:1021500078203D2063616E7661732E676574436FEE
:102160006E746578742827326427293B0A6D794399
:10217000616E7661732E7374796C652E626F726412
:102180006572203D20227265642031707820736F63
:102190006C6964223B0A766172206176616C303D25
:1021A0005B5D2C206176616C313D5B5D2C2061763E
:1021B000616C323D5B5D2C206176616C333D5B5D13
:1021C0003B200A0A666F7228636E743D303B2063C1
:1021D0006E743C31383B20636E742B2B297B0A20B4
:1021E000206176616C305B636E745D3D303B0A202C
:1021F000206176616C315B636E745D3D303B0A201B
:10220000206176616C325B636E745D3D303B0A2009
:10221000206176616C335B636E745D3D303B0A7D9B
:102220000A0A66756E6374696F6E2064726177471F
:102230007261706828297B696E6974477261706881
:1022400028293B2075706461746547726170682845
:10225000302C302C302C30293B204765744172647F
:1022600075696E6F496E7075747328293B7D0A0A13
:1022700066756E6374696F6E20696E69744772610A
:10228000706828297B0A20206374782E66696C6C3C
:102290005374796C653D2223666630303030223BC2
:1022A0000A20206374782E666F6E74203D202232DF
:1022B000387078207365726966223B0A2020637447
:1022C000782E74657874416C69676E203D202263B6
:1022D000656E746572223B0A20206374782E6669ED
:1022E0006C6C5465787428224449474954414C2009
:1022F000494E50555420414E414C59534552222C81
:102300003239302C3330293B0A7D0A66756E63748E
:10231000696F6E20757064617465477261706828BA
:1023200076616C302C2076616C312C2076616C32B9
:102330002C2076616C33297B0A20206374782E630D
:102340006C6561725265637428302C2033302C2008
:1023500063616E7661732E77696474682C206361A3
:102360006E7661732E686569676874293B0A202060
:102370006176616C302E736869667428293B206928
:10238000662876616C303D3D31296176616C302E76
:1023900070757368283235293B20656C7365206140
:1023A00076616C302E707573682830293B0A2020C6
:1023B0006176616C312E736869667428293B2069E7
:1023C000662876616C313D3D31296176616C312E34
:1023D00070757368283235293B20656C7365206100
:1023E00076616C312E707573682830293B0A202085
:1023F0006176616C322E736869667428293B2069A6
:10240000662876616C323D3D31296176616C322EF1
:1024100070757368283235293B20656C73652061BF
:1024200076616C322E707573682830293B0A202043
:102430006176616C332E736869667428293B206964
:10244000662876616C333D3D31296176616C332EAF
:1024500070757368283235293B20656C736520617F
:1024600076616C332E707573682830293B0A202002
:10247000696628646F63756D656E742E6765744553
:102480006C656D656E74427949642827633027292D
:102490002E636865636B65642964726177506C6F45
:1024A000742830293B0A2020696628646F63756DA3
:1024B000656E742E676574456C656D656E744279E2
:1024C00049642827633127292E636865636B656437
:1024D0002964726177506C6F742831293B0A20207F
:1024E000696628646F63756D656E742E67657445E3
:1024F0006C656D656E7442794964282763322729BB
:102500002E636865636B65642964726177506C6FD4
:10251000742832293B0A2020696628646F63756D30
:10252000656E742E676574456C656D656E74427971
:1025300049642827633327292E636865636B6564C4
:102540002964726177506C6F742833293B0A7D0AC5
:102550000A66756E6374696F6E2064726177506C81
:102560006F742862617253656C297B0A2020637442
:10257000782E7361766528293B0A20206374782EB3
:10258000626567696E5061746828293B0A20206380
:1025900074782E6C696E655769647468203D2031CB
:1025A0003B0A20206374782E7374726F6B655374CA
:1025B000796C65203D202723383838383838273B58
:1025C0000A2020666F7228636E743D313B20636E73
:1025D000743C393B20636E742B2B297B0A2020200E
:1025E000206374782E7365744C696E6544617368FA
:1025F000285B312C315D293B0A2020202063747830
:102600002E6D6F7665546F28302C37352B636E74C2
:102610002A3235293B0A202020206374782E6C69E9
:102620006E65546F283532352C37352B636E742A1E
:102630003235293B0A202020206374782E7374726F
:102640006F6B6528293B0A20207D0A2020666F7267
:1026500028636E743D313B20636E743C31383B20FF
:10266000636E742B2B297B0A202020206374782E24
:102670006D6F7665546F28302B636E742A33302C5F
:102680003930293B0A202020206374782E6C696E33
:1026900065546F28302B636E742A33302C333030FE
:1026A000293B0A202020206374782E7374726F6B8C
:1026B0006528293B0A20207D0A20206374782E7229
:1026C0006573746F726528293B0A20206374782E25
:1026D000626567696E5061746828293B0A2020731F
:1026E00077697463682862617253656C297B0A207C
:1026F000202020636173652030203A206374782E97
:102700006D6F7665546F28302C3330302D617661D3
:102710006C305B305D293B20627265616B3B0A2047
:10272000202020636173652031203A206374782E65
:102730006D6F7665546F28302C3235302D6176619F
:102740006C315B305D293B20627265616B3B0A2016
:10275000202020636173652032203A206374782E34
:102760006D6F7665546F28302C3230302D61766174
:102770006C325B305D293B20627265616B3B0A20E5
:1027800020202064656661756C74203A206374783B
:102790002E6D6F7665546F28302C203135302D61C9
:1027A00076616C335B305D293B200A20207D0A2056
:1027B00020666F7228636E743D313B20636E743CFB
:1027C00031383B20636E742B2B297B0A202020207C
:1027D0007377697463682862617253656C297B0A38
:1027E000202020202020636173652030203A200AB9
:1027F00020202020202020206966286176616C300E
:102800005B636E745D3D3D6176616C305B636E74DD
:102810002D315D29206374782E6C696E65546F28A4
:10282000636E742A33302C3330302D6176616C3016
:102830005B636E745D293B0A20202020202020202D
:102840006966286176616C305B636E745D3E6176AB
:10285000616C305B636E742D315D29207B20637465
:10286000782E6C696E65546F28636E742A33302C31
:10287000333030293B206374782E6C696E65546F59
:1028800028636E742A33302C323735293B7D0A2079
:10289000202020202020206966286176616C305B32
:1028A000636E745D3C6176616C305B636E742D3178
:1028B0005D29207B206374782E6C696E65546F28C7
:1028C000636E742A33302C323735293B2063747899
:1028D0002E6C696E65546F28636E742A33302C3306
:1028E0003030293B7D0A20202020202020206374C6
:1028F000782E7374726F6B655374796C65203D200C
:102900002723666630303030273B20627265616B6A
:102910003B0A202020202020636173652031203A6B
:10292000200A20202020202020206966286176614E
:102930006C315B636E745D3D3D6176616C315B63F0
:102940006E742D315D29206374782E6C696E655428
:102950006F28636E742A33302C3235302D617661E6
:102960006C315B636E745D293B0A2020202020209F
:1029700020206966286176616C315B636E745D3E10
:102980006176616C315B636E742D315D29207B2033
:102990006374782E6C696E65546F28636E742A3385
:1029A000302C323530293B206374782E6C696E658B
:1029B000546F28636E742A33302C323235293B7DB4
:1029C0000A20202020202020206966286176616C62
:1029D000315B636E745D3C6176616C315B636E7418
:1029E0002D315D29207B206374782E6C696E6554CF
:1029F0006F28636E742A33302C323235293B2063C2
:102A000074782E6C696E65546F28636E742A333047
:102A10002C323530293B7D0A202020202020202008
:102A20006374782E7374726F6B655374796C652060
:102A30003D202723303066663030273B20627265A8
:102A4000616B3B0A202020202020636173652032C7
:102A5000203A200A2020202020202020696628619A
:102A600076616C325B636E745D3D3D6176616C32A4
:102A70005B636E742D315D29206374782E6C696EF2
:102A800065546F28636E742A33302C3230302D61D8
:102A900076616C325B636E745D293B0A20202020D6
:102AA000202020206966286176616C325B636E7439
:102AB0005D3E6176616C325B636E742D315D292001
:102AC0007B206374782E6C696E65546F28636E7416
:102AD0002A33302C323030293B206374782E6C69D5
:102AE0006E65546F28636E742A33302C3137352964
:102AF0003B7D0A2020202020202020696628617646
:102B0000616C325B636E745D3C6176616C325B63F9
:102B10006E742D315D29207B206374782E6C696E74
:102B200065546F28636E742A33302C313735293B56
:102B3000206374782E6C696E65546F28636E742AF6
:102B400033302C323030293B7D0A202020202020B9
:102B500020206374782E7374726F6B655374796C74
:102B600065203D202723303030306666273B2062C9
:102B70007265616B3B0A202020202020646566611D
:102B8000756C74203A200A20202020202020206903
:102B900066286176616C335B636E745D3D3D617682
:102BA000616C335B636E742D315D29206374782E04
:102BB0006C696E65546F28636E742A33302C31351E
:102BC000302D6176616C335B636E745D293B0A2046
:102BD000202020202020206966286176616C335BEC
:102BE000636E745D3E6176616C335B636E742D3130
:102BF0005D29207B206374782E6C696E65546F2884
:102C0000636E742A33302C313530293B206374785D
:102C10002E6C696E65546F28636E742A33302C31C4
:102C20003235293B7D0A2020202020202020696683
:102C3000286176616C335B636E745D3C6176616CB8
:102C4000335B636E742D315D29207B206374782E95
:102C50006C696E65546F28636E742A33302C313280
:102C600035293B206374782E6C696E65546F286338
:102C70006E742A33302C313530293B7D0A202020D8
:102C800020202020206374782E7374726F6B65533C
:102C900074796C65203D2027236666303066662790
:102CA0003B20627265616B3B0A202020207D0A2058
:102CB0002020206374782E6C696E6557696474688F
:102CC000203D20333B0A202020206374782E73742B
:102CD000726F6B6528293B0A20207D0A7D0A3C2FF4
:102CE0007363726970743E0A3C2F626F64793E0AA6
:102CF0003C2F68746D6C3E0A00FFFFFF1603550001
:102D0000530042002000530065007200690061001A
:102D10006C00000018035400650065006E0073002D
:102D200079006400750069006E006F0004030904F7
:102D300009024300020100C032090400000102023E
:102D400001000524001001052401010104240206EC
:102D50000524060001070582031000100904010084
:102D6000020A000000070503024000000705840274
:102D70004000000009024300020100C032090400C3
:102D800000010202010005240010010524010101D7
:102D9000042402060524060001070582031000052D
:102DA00009040100020A00000007050302000200F6
:102DB00007058402000200000A060002020000402B
:102DC000010001FFF8B500BFF8BC08BC9E46704783
:102DD0005FF800F0B5EB00005FF800F0FDE80000E0
:102DE0005FF800F03DF500005FF800F049D3000007
:102DF0005FF800F031DD00005FF800F095EE0000B4
:102E00005FF800F04DD300005FF800F0A1CE0000A5
:102E10005FF800F065D1000045000000F1050000FA
:102E2000950A0000591C0000FFFFFFFFFFFFFFFF96
:102E30000000000000000000000000000000000092
:102E40000000000000000000000000000000000082
:102E500010B5054C237833B9044B13B10448AFF3D4
:102E600000800123237010BD7C3E00200000000084
:102E700024FF0000084B10B51BB108490848AFF308
:102E800000800848036803B910BD074B002BFBD036
:102E9000BDE81040184700BF00000000803E002041
:102EA00024FF000060180020000000000020704790
:102EB000704700BF08B501210D200DF005F9642110
:102EC000074801F0D3FD00210D200DF0FDF864212D
:102ED000034801F0CBFD024801F0C6FDEBE700BF5F
:102EE000483F002000B54FF47A6283B04EF660216F
:102EF000194800F0BDFB00F0D5FCD0B100F0C2FCD9
:102F0000022821D0154801F045F80D2114480EF093
:102F100071F914480EF028FB684600F0C5FC114911
:102F200068460EF01DFA0F480EF01EFB03B05DF868
:102F300004FB1E210C480EF05DF90A480EF014FB4C
:102F400000F0A0FC0228DDD1202108480EF052F943
:102F500004480EF009FBD5E744010020983E00200C
:102F60004400002008100020000000202000002065
:102F700030B5012183B00D20164C0DF0B1F80021C1
:102F80000D4608460DF0ACF8012029460DF0A8F8D2
:102F9000294602200DF0A4F8294603200DF0A0F8E0
:102FA00012210D480EF026F90C480EF0DDFA2046ED
:102FB00000954FF0FF330122094901F0BFFC4FF0AB
:102FC000FF33012207490095204601F0B7FC03B00A
:102FD00030BD00BF483F00205400002008100020F2
:102FE000B500000085000000F8B50F4605460FF05B
:102FF0007FFC044638460FF07BFCE3B2834214D3D7
:103000009BB15E1E6A1E002355FA86F602E000237D
:10301000B2420AD012F8015FFC5CA542F7D101333D
:10302000DBB29842F4D10120F8BD0020F8BD00BF0A
:103030002DE9F04F87B004460020654E0CF014FED9
:1030400005900120634D0CF00FFE834602200CF02A
:103050000BFE824603200CF007FE814604200CF094
:1030600003FE804605200CF0FFFD019005200DF0C9
:1030700031F8029006200DF02DF8039007200DF096
:1030800029F8049008200DF025F818220746524927
:10309000204600F00BFD20460822504900F006FDB6
:1030A00031460822204600F001FD059B20461946C6
:1030B0000EF0AAFA29462046092200F0F7FC314614
:1030C0000822204600F0F2FC594620460EF09CFAF9
:1030D00029462046092200F0E9FC31460822204614
:1030E00000F0E4FC514620460EF08EFA29462046B8
:1030F000092200F0DBFC31460822204600F0D6FC15
:10310000494620460EF080FA29462046092200F062
:10311000CDFC31460822204600F0C8FC414620463E
:103120000EF072FA29462046092200F0BFFC314613
:103130000822204600F0BAFC294E019920460EF0E4
:1031400063FA29462046092200F0B0FC254D31469D
:103150000922204600F0AAFC029920460EF054FAFB
:10316000294620460A2200F0A1FC314609222046C9
:1031700000F09CFC039920460EF046FA29462046B2
:103180000A2200F093FC31460922204600F08EFC12
:10319000049920460EF038FA294620460A2200F00B
:1031A00085FC31460922204600F080FC3946204645
:1031B0000EF02AFA294620460A2200F077FC204623
:1031C0000922094907B0BDE8F04F00F06FBC00BF0D
:1031D000900000209C000020680000208400002057
:1031E000A8000020B4000020C00000202DE9F0411C
:1031F0009AB0794C794902A800F052FF22789DF8E4
:1032000015309A4202D81AB0BDE8F08174481821EE
:103210001AAA006842F8641D0EA950F8230009F0AC
:10322000D7FB002832D022789DF815309A42EAD98F
:103230006C4D0124DFF8B8812F4603E002A800F0AE
:103240003DFD68B902A800F071FB0028F6D101200D
:103250000CF0A0FE02A800F0E5FB1AB0BDE8F0817A
:1032600002A8604E00F054FC2B68C0B2302B03F172
:10327000010202DC08F803003A600A2800D1ECB928
:103280000A2819D00D2818BF0024DBE7BDF83A3012
:103290009DF840505BBA9DF841009DF842109DF8A2
:1032A0004320ADF824308DF820508DF821008DF8A2
:1032B00022108DF82320B6E70124C3E74A490F22E4
:1032C00002A800F0F3FB02A80EF04EF94749484867
:1032D000FFF78AFE00284DD01622464902A8464D27
:1032E00000F0E4FB02A80EF03FF91622434902A8C1
:1032F00000F0DCFB02A80EF037F902A80EF034F95A
:103300009DF80C10049A0EA89DF814309DF81540F5
:103310008DF83C101092BDF81610BDF818208DF8ED
:103320004430374B0E95089F8DF84540BDF824502A
:10333000ADF846100B9CADF84820BDF83010139343
:1033400016939DF832200D9B1497ADF854501794A6
:10335000ADF860108DF862201993FFF769FE002028
:10336000284B014603F13202306003F8011F9A42F4
:10337000FBD16CE71722244902A800F097FB02A8B2
:103380000EF0F2F81D49162202A800F08FFB02A8E9
:103390000EF0EAF802A80EF0E7F81C491448FFF70F
:1033A00023FE98B112480FF0A3FA014610480DF021
:1033B00021FF17480EF0D8F8164902A80EF0AEF813
:1033C0000022154902A800F071FBC8E71349114813
:1033D0000EF088F9F0E700BFF03E0020983E002094
:1033E000F83E0020A43E0020CC000020DC0000209D
:1033F000B83E0020E80000209801002000010020D5
:1034000020080020B73E00201801002030010020D5
:1034100008100020A83E002040000020E0190060B5
:1034200070B50022084B094C5025094E1146204624
:103430001A711E60DD800EF033F92046054A0649F8
:10344000BDE870400EF02CBC983E0020A83E002045
:103450000002002054080020F1E7000072B616E0D8
:1034600072B618E072B6224800680121016006E0D9
:1034700072B61EF10F0F38D01EF11F0F35D01D4848
:103480000168002903D0A1F1010101602DE01A4873
:103490000068012829D119480068A0E8F04FA0EC85
:1034A000200AF1EE101A02C015480068002803D166
:1034B000EFF309801349086001F03AFA0F480068F9
:1034C000B0E8F04FB0EC200A02C8E1EE101A0EF09E
:1034D000100E6EF0160E0A480068002805D1094843
:1034E000006880F309884EF0040E62B67047000051
:1034F000843F0020403F00203C3F0020283F002028
:10350000303F0020443F002088B181B10288012A69
:1035100030B410D01C30002203E030F81C4B012CDA
:103520000AD0013205469142F7D130BC70474FF0C6
:10353000FF329A60704705462A7A01211A746A7A26
:103540005A74AA7A9A74EA7A9960DA7430BC70472D
:103550004B684360704700BFF0B500238BB0044652
:103560000F46836019461546684628220EF0FEFE77
:1035700001234FF45451174AADF80030ADF81C3018
:10358000ADF80210089207F0CBFE08F04FF826794C
:103590006179A279E37901906846069709948DF8DC
:1035A00008608DF809108DF80A208DF80B3002F0B4
:1035B000E7FC48B1A368002BFCD0A368013302D01C
:1035C000A068012802D000200BB0F0BD23696B6019
:1035D0000BB0F0BDD906000000207047704700BF57
:1035E000014B1868704700BFD445002010B5044651
:1035F0000DF066FF204610BD0029194B14BF0121B4
:10360000002130B5197083B013D01546044607F079
:1036100087FE07F097FE00238DF804308DF8053003
:103620008DF806308DF80730019B834208D003B037
:1036300030BD02F089FB03B0BDE8304002F078BB3A
:10364000084B18461C6002F005FB0028EFD020460E
:1036500002F07AFB296803B0BDE8304002F0A2BB5B
:10366000003F0020043F0020704700BF704700BFAC
:103670002DE9F04F734E91B033680191039200939E
:10368000029007F04DFE07F0A3FD002840F0A8804F
:103690006D4B1B681BB94FF480336B4A13606B4B47
:1036A0001B68002B00F0C680694F3B6813B94FF4CC
:1036B00000633B60DFF8C48198F80000002800F048
:1036C000B0808000634D0EF03BF898F80030286021
:1036D0009800DFF8AC910EF033F898F8003068608D
:1036E00058000EF02DF898F80030A86058000EF041
:1036F00027F898F80030E86098000EF021F898F864
:103700000030286198000EF01BF898F80030C9F8D6
:10371000000058000EF014F898F800306861580066
:103720000EF00EF84C4A98F8003010602BB34FF0B2
:10373000000B0FFA8BF4D5F800A038680BF1010BE1
:103740000DF0FEFF4AF82400D5F804A05FFA8BFBC9
:1037500038680DF0F5FF4AF82400D5F810A00420D1
:103760000DF0EEFF00224AF82400D9F8003043F8AB
:10377000242098F800305B45DBD8344B08A81A6841
:10378000314B08921B68354A0993354B0A920B93CB
:1037900009F016FC013040D002990622314807F0AA
:1037A000C3FE013039D007F0BBFD002835D007F04B
:1037B000B7FD2D4A2D491368059013F0010F0691AE
:1037C0002B4B03D1012103981160186005A80793C2
:1037D00002F000FD45F6BF52264927480DF010FEC5
:1037E0009DE80C0013441C4602E033689C4214D947
:1037F00007F096FD02F0A8FA02F0A2FA0028F4D031
:1038000001E0089B93B907F08BFD02F09DFA08A92F
:1038100002F0B4FA33689C42F3D8002011B0BDE83E
:10382000F08F0823202088F800304BE7012011B0EA
:10383000BDE8F08F044B18680DF082FF034B186051
:1038400032E700BFD4450020EC3E0020FC3E0020C3
:10385000F43E002000002020243F00204C010020E6
:103860005C0100202C0D0020143F0020C90700003F
:10387000183F00207DA2000058080020F03E0020E4
:10388000F83E0020064B1B7803F0FF002BB1A0F19F
:103890000100B0FA80F0400970470220704700BF75
:1038A000003F00200320704710B5044607F038FDA4
:1038B00007F048FD024B60602046236010BD00BF4A
:1038C0002008002030B4054B0024054D5C601D60CD
:1038D000044A0549054830BC0EF0E2B91C3F0020FF
:1038E0002008002054080020BD07000058080020D0
:1038F00080F82A10704700BF8969024A416002605F
:10390000704700BF20080020808B7047008A7047F6
:10391000C181704710B582B00468012202AB03F880
:10392000011D19466368984702B010BD104A437BD9
:1039300012789A4201D80020704710B50446184604
:1039400000F06CFC182803D91C2809D0012010BDF8
:10395000084B23FA00F000F0010080F0010010BDD8
:10396000236820461B699847003018BF012010BD0E
:10397000F03E002001001001407B00F09DBD00BF23
:103980002DE9F041244E8AB005460F463378904623
:10399000002B2FD1214E407B3278214C9042069350
:1039A0000993029305940894019405D200F036FC23
:1039B00000282CD133786B7307F0B2FC07F0CCFCF5
:1039C00003A9049005A80394FFF7C2FD05A8394692
:1039D00041F2883301AAFFF7BFFD40B12B68424690
:1039E000029E03A9DB6928460394049698470AB00F
:1039F000BDE8F081094A0023094C12783370427304
:103A0000069309930293059408940194D4E7687B84
:103A100000F052FDCEE700BF60080020F03E00201D
:103A20002008002038B50A4D437B2A789A420DD9E8
:103A3000084A126852F8232042B10446184600F0A2
:103A40003BFD607B00F01CFC2B78637338BD00BF2E
:103A5000F03E0020F83E002008B5054B407B1B7867
:103A6000834201D8002008BD00F084FD08BD00BFDE
:103A7000F03E002070B504460A4D0B4E0BE000F0FE
:103A8000CDFB172801D01C280AD1607B00F072FD05
:103A90003368984204DA637B2A7818469A42EED853
:103AA00070BD00BFF03E0020F43E002010B592B281
:103AB0000446407B00F08AFD054B627B1B789A42EE
:103AC00003D218B90123237110BD002010BD00BF1F
:103AD000F03E0020C36A002B10B5044602DD9A4276
:103AE00028BF1A46094B607B1B78834201D800200F
:103AF00010BD12B200F0EAFC03B2002B04DDE26A52
:103B00001846D31AE36210BD184610BDF03E0020DF
:103B100010B582B001220446407B0DF1070100F090
:103B2000D5FC02B2002A06DDE36A9DF807009B1A65
:103B3000E36202B010BD4FF0FF30FAE70A4A417B62
:103B40001278914209D2036810B51B690446984760
:103B500030B1607B00F000FD10BD4FF0FF307047CA
:103B60004FF0FF3010BD00BFF03E00204B7B427B8A
:103B7000934201D000207047124A12789A42F9D934
:103B800030B5044689B01048182508AA02A9006873
:103B900042F81C5D50F8230008F01AFF78B9BDF810
:103BA0000A309DF810505BBA9DF811009DF8121074
:103BB0009DF81320A38325766076A176E276012016
:103BC00009B030BDF03E0020F83E00202DE9F8435A
:103BD000294B174604460D461A78284E9AB1002103
:103BE0003278197042736B68013B033307D80021A8
:103BF000212000F05BFB3278607382420DD80025F3
:103C00002846BDE8F883407B33788342EBD900F047
:103C100005FB38BB33786373E5E73A46291D00F0AE
:103C20001BFCDFF85C80278294F82A306A68D8F899
:103C300000906262278553B110E0D8F8003001206F
:103C4000E289C9EB0303934210D80CF0A3F923686F
:103C500020465B6B984705460028EED00125284694
:103C6000BDE8F883607B00F027FCD3E7607B00F0C1
:103C700007FB33786373C3E761080020F03E002040
:103C8000D445002038B50446407B00F0C7FA172819
:103C90000DD00546A0F11C00B0FA80F0400930B903
:103CA00005B138BD607B00F0EBFA284638BD626A8A
:103CB0000120238DA261A38338BD00BF3F4A437B0F
:103CC00012789A420ED93E4A1BB2126852F823204B
:103CD00042B11821F0B5C56A8BB0039125B12846D1
:103CE0000BB0F0BD00207047364903AFDFF8F4E0B9
:103CF00004AE096804461046DEF8002051F823108F
:103D00002B468DE8C00008F08BFA2F4B627B1B68B6
:103D100023F81250421C14D000284DD0BDF81230A8
:103D200005469DF818705BBA9DF819609DF81A1049
:103D30009DF81B20E062A38327766676A176E27663
:103D4000CDE7607B00F06AFA1C28054605D81F4BBA
:103D5000C340DB0701D50020C2E702F0B7FD10F138
:103D6000140F0646F7D00B2119480DF043FA002333
:103D70001022617B17480DF007FC0E2116480DF04C
:103D800039FA00231022294612480DF0FDFB0221CA
:103D900012480DF02FFA092111480DF02BFA0DF001
:103DA0005BFA31460B480DF02FFC0A480DF0DCFBA6
:103DB0000023E362184693E7E56A90E7F03E0020AF
:103DC000F83E0020040020201400202001000810EC
:103DD00064010020081000207001002080010020F4
:103DE00084010020F43E0020154A70B5437B88B062
:103DF00012780D469A4202D8284608B070BD044693
:103E00001048182608AA006802A942F81C6D50F84C
:103E1000230008F0DDFD0028EED19DF81100BDF86B
:103E20000A309DF810605BBA9DF812109DF81320BF
:103E300060762846A3832676A176E27608B070BD28
:103E4000F03E0020F83E0020164A70B5437B88B053
:103E500012780D469A4203D885F0010008B070BD73
:103E600004461148182608AA006802A942F81C6DE9
:103E700050F8230008F0ACFD0028EDD19DF81100AA
:103E8000BDF80A309DF810605BBA9DF812109DF8DD
:103E90001320607685F00100A3832676A176E27672
:103EA00008B070BDF03E0020F83E002070B5164D01
:103EB00088B0437B2A78934205D393422CBF0020DD
:103EC000012008B070BD04461048182608AA0068F2
:103ED00002A942F81C6D50F8230008F079FD78B96A
:103EE000BDF80A309DF810605BBA9DF811009DF88E
:103EF00012109DF81320A38326766076A176E276D1
:103F0000637B2A78D9E700BFF03E0020F83E00200E
:103F1000184A70B5437B88B0127804460D469A4221
:103F200009D82368294620469B6C984780F00100F9
:103F3000C0B208B070BD1048182608AA02A90068CF
:103F400042F81C6D50F8230008F042FD0028E8D12B
:103F5000BDF80A309DF810605BBA9DF811009DF81D
:103F600012109DF81320A38326766076A176E27660
:103F7000D7E700BFF03E0020F83E002010B582B029
:103F80000468012202AB03F8011D194663689847D3
:103F900002B010BD70B504462120E18800F086F91A
:103FA0000D4B1B78834200D870BD054600F046FAE1
:103FB00060B10A4A2BB2E68821461268084822F806
:103FC000136001F0C3F9A0600028EDD12846BDE8D8
:103FD000704000F071BA00BFF03E0020243F002086
:103FE000F5110000F8B50D4B1E78A6B1002405466A
:103FF0000B4F204602E0E0B2B0420CD23A68EB88A8
:1040000032F8142001349A42F5D100F007F914284F
:10401000F1D10120F8BD0020F8BD00BFF03E002026
:10402000243F00201B4B2DE9F0431E7889B076B366
:1040300000240546DFF864802046174F03E0013472
:10404000E0B2B04223D2D8F80020EB8832F8142036
:104050009A42F4D100F0E2F81428F0D13B6801AAAA
:1040600002A953F8240008F051F881460028E6D050
:104070003B6853F8240007F0B1FF3B6843F82490F5
:104080000134A86801F082F9E0B2B042DBD309B094
:10409000BDE8F083F03E0020F83E0020243F0020E1
:1040A0003C4B2DE9F04F1F7883B006468946002F20
:1040B0005BD00024DFF8E08000970194254603E000
:1040C0000134E5B2AF421DD9D8F800204FEA440AC6
:1040D000B9F8063032F814209A42F1D1284600F09F
:1040E0009DF8172883462AD01C2828D0142843D0AE
:1040F0000028E5D10134284BE5B21B68AF4223F814
:104100000A00E1D8019B002B30D00023234A4FF452
:104110007A75234C42F2107130469DF8007033716D
:1041200077733373B361736286F82A30F362B560D4
:104130003460F1817261326203B0BDE8F08F194AD8
:10414000022319491268096852F82400174A51F8E5
:104150002410126808F0D6F8002810DD144B002255
:1041600000951B6823F80A20AAE70097D9F80030C9
:1041700048461B699847C8E701230193A0E7BBF1B4
:104180001C0F9DD1284600F097F9284600F078F8DA
:1041900096E700BFF03E0020243F002020080020CA
:1041A00098010020F83E002004002020F43E00206A
:1041B00014002020174B2DE9F04F07468DB01E78D4
:1041C0008946684639469046FFF76AFFF6B10024F3
:1041D000DFF844B01FFA88FA254602E0E5B2B5429E
:1041E00014D2DBF80020FB8832F8142001349A4204
:1041F000F4D1284600F012F81728EFD12846E5B28E
:104200005246494600F0E2F9B542EAD340460DB0C5
:10421000BDE8F08FF03E0020243F0020164B1B68C5
:1042200053F82000A0B1154910B584B0012403AAA9
:104230000DF10B0303940092072208F0F5F89DF8A6
:104240000B30042B14D8DFE803F004070A0D10002C
:104250007047002004B010BD1C2004B010BD132016
:1042600004B010BD172004B010BD142004B010BD60
:10427000012004B010BD00BFF83E002017E5030088
:1042800070B5094E05B20446336853F8250007F0AF
:10429000A5FE2046FFF7C2FF0128FAD133680022AD
:1042A00043F8252070BD00BFF83E00202DE9F04FF7
:1042B0005C4E89B096F80080B8F1000F00F08E8057
:1042C000594F8B4605463B681C68ECB1002402E060
:1042D00053F8042FC2B10134E4B2A045F8D14FF035
:1042E00000094B4601E0984517D918461C46FFF7D0
:1042F00095FF00F0FB0009F1010918285FFA89F326
:10430000F1D12046FFF7BCFF484B0121022D1B686D
:104310000391029354D0212D03D0307809B0BDE829
:10432000F08FD7F800900FFA84F80022084608F0C2
:1043300085F949F828004FEA88083B68DFF8E890DB
:1043400053F80830002BE8D00C22002105A84FF0CC
:10435000040A08F077FFD9F8003000214FF0010E71
:104360009BFA9BFB53F80800062202AB0791CDF89D
:1043700000A02F49ADF814E0ADF816B007F0CCFF5F
:10438000D9F8000002AB0522294950F80800CDF801
:1043900000A007F0C1FF212D22D03B6805A90C2207
:1043A000214D53F8080008F0C9FC013033D0214BEF
:1043B000002220461B6823F8142009B0BDE8F08FC6
:1043C000D7F800900FFA84F808460022294608F032
:1043D00035F949F828004FEA8808AEE740469DE7DE
:1043E000D9F8005003AB1449102255F8085008685A
:1043F0000621CDF800A00490284607F08DFFD9F8DB
:10440000001004AB032251F808000949CDF800A0C0
:1044100007F082FFC1E72B6853F8080007F0DEFDC4
:104420007BE700BFF03E0020F83E0020F43E002075
:1044300017E50300243F00201802002008B5054BB3
:1044400001211B6853F8200007F022FEB0FA80F02B
:10445000400908BDF83E002070B5144D84B00C68CA
:1044600056BA2D6801230C2201A955F82000ADF899
:1044700006600394ADF8043008F082FB013001D0EF
:1044800004B070BD02F022FA04460D2108480CF079
:10449000B1FE0CF0E1FE214606480DF0B5F80548E6
:1044A0000DF062F80CF0D8FE04B070BDF83E0020AC
:1044B0001C02002008100020034B02211B6853F847
:1044C000200007F0BDBD00BFF83E00202DE9F041FF
:1044D0001E4E45001E4B37681B6837F810E02F440E
:1044E0009E452FD080460EEB02001446834212DD1B
:1044F00069B1184B08461B6853F82810714408F03E
:104500001FFE376837F818E02F440EEB04003880A0
:104510002046BDE8F081CEEB0304A4B261B10D4B9F
:10452000084622461B6853F82810714408F008FE1C
:1045300033685F1933F818E004EB0E012046398028
:10454000BDE8F0814FF0FF34E2E700BF1400202007
:10455000F43E002004002020044A054B12681B682A
:1045600052F8202033F81030D05C7047040020202F
:104570001400202070B5134E86B00546042405A90A
:10458000306803AB0B2250F8250000910E490594CA
:10459000049407F049FF013011D0316804AC02AB3C
:1045A000052251F825000849009407F03DFF01302D
:1045B00005D0029B0398181A80B206B070BD002087
:1045C00006B070BDF83E002017E5030070B5044644
:1045D0000E4615462046FFF7CDFFA842FAD30F48F6
:1045E00000232A463146006850F8240008F0E6F916
:1045F000431C01D080B270BD02F068F90446092165
:1046000007480CF0F7FD0CF027FE214605480CF09A
:10461000FBFF04480CF0A8FF002070BDF83E00200E
:104620002C020020081000200F4B1B681BB11FB587
:104630009847BDE81F401EF0040F0CBFEFF3088041
:10464000EFF30980836913F8023C212B08D0222B59
:1046500000D07047054B01221A60FEF701BF70477A
:10466000FEF7FCBE704700BF803F00203C3F0020AB
:10467000044A936843F001039360BFF34F8FFEF742
:10468000F7BE00BF00C01E40044A936843F0010318
:104690009360BFF34F8FFEF7EBBE00BF00001F40DB
:1046A00030B472B60A4902250B680D6062B6094A39
:1046B000D46810690634013852F824401061C4F8F7
:1046C000B45072B65A1C08BF01230B6062B6FEE7F5
:1046D0003C3F0020483F0020024B02221B68C3F8E9
:1046E000B4207047343F00202C4A1368F0B533BB28
:1046F0002B490C68E50628D42A4B2B4CC3F8D04133
:104700002A4DFF26102401232E700C601360284CC4
:10471000471E284B0121E26E4FF0000C4FF0170EA0
:104720003F2642F4401241250846E266C3F800C025
:10473000C3F804E01F619E60D9601D60F0BD012BCD
:10474000E5D0022B0FD00020F0BD0C68A40622D4C7
:10475000144B194CC3F8D441184DFF2620240223D2
:104760002E700C601360124D431E154A0124E96E31
:104770004FF0000C4FF0170E3F2741F44011412637
:104780002046E966C2F800C0C2F804E013619760F1
:10479000D4601660F0BD1846F0BD00BF2C3F00206D
:1047A0000CE100E0004C00204118000064E400E04F
:1047B00000C00F4000C01E405918000065E400E032
:1047C00000001F40F8B5044600204FF480674FF406
:1047D00020560A252346014604F13402276066600C
:1047E000A560E060206143F8140F43F8041F934272
:1047F0004FF00005F9D1C02003270CF09FFF294698
:10480000C02206460DF0B2FD60681A4B06F10C0E90
:104810000121194A1B1AC6F8B450C6F8B4107360C7
:10482000164BA661C3F800E0DFF870E0A368CEF88D
:104830000010134930600B60D06ADFF864C0C6F81E
:10484000BC30104BCCF8006098420F4E0F4B104913
:1048500018BF18604FF47A7008BF1D6035600F6094
:1048600000210C4B0C4D1960D562FFF73DFF20462F
:10487000F8BD00BF00000720004C0020283F0020AA
:10488000403F002031D30000443F0020803F002003
:104890003C3F0020383F0020F9170000303F002047
:1048A000343F0020F0B51D4E83B01D4D31682A689D
:1048B000C368C1F8B8201BB14968521A082A27DD1D
:1048C000D91D00EB81010133072B1CDC51F8042BAF
:1048D000002AF8D0D2F8B440012CF4D1B3FA83F115
:1048E000C360490902F10C04D2F8BCE00D4F0E4838
:1048F00032600E4BD2F8B820C7F800E004602A609E
:10490000196003B0F0BD002382690121C360E9E7AB
:104910000190FFF7E1FE0198C368D1E7343F002022
:10492000443F0020403F0020283F0020303F00202F
:104930000148FFF7B7BF00BF483F00202DE9F04F07
:1049400083B0804693469946009172B6444F022345
:10495000D7F800A03B6062B6B9F1FF3F00F118063E
:104960004FF0010508BFD0F8009056F8044F002C16
:1049700050D0D4F8B430022B0DD0D4F8B43053B1A9
:104980000135082DF1D1BAF1010F51D04FF0FF30B0
:1049900003B0BDE8F08F606810B1A368002B54D15C
:1049A0000C9B002B54D00023A3600C9AA9F1280380
:1049B000D8F810104FF0807662602AF00200C4F838
:1049C0000090013142F803B01344C7F800A0254F0E
:1049D000009A5F610127D8F808E09A61B842DE6169
:1049E0004FF000026FF006065A609A60DA601A61B2
:1049F000C4F8B830C4F8BCE0C4F8B470E662184B30
:104A0000C8F810101DD172B6186062B6284603B0FF
:104A1000BDE8F08FC0200CF091FE2146C02201902D
:104A20000DF0A4FC019BC3F8B4401C463360A0E722
:104A300072B6C7F800A062B64FF0FF3003B0BDE811
:104A4000F08F284603B0BDE8F08F0CF07BFEA7E79F
:104A500048460CF075FE01230C90A360A5E700BF4B
:104A60003C3F00207118000021DF7047054A1068A4
:104A700013681B1A994204DD21DF13681B1A8B424D
:104A8000FADB7047D44500200148FFF79BBE00BF0A
:104A9000483F002040BA80B2704700BF00BA70475C
:104AA000002070472DE9F041514D0446514BEA6E0C
:104AB000514E194642F440625048EA66C3F8E86035
:104AC000C3F8E400D1F8EC304A4A002BFADA4C4D36
:104AD0004FF480334B490527C2F8E83043F2E9062A
:104AE0006A684FF4004C484B4FF4804E11404748E1
:104AF00003224FF0160841F4003169604BF2E905DA
:104B0000C3F87471C3F878713127416841F44041AA
:104B10004160C0F884C04FF0020CC0F888E001206A
:104B2000C3F87C634FF0000EC3F88463C3F880536E
:104B3000C3F89863C3F88853C3F88C53C3F89053F1
:104B4000C3F8947307F16047C3F89021C3F88C2130
:104B500007F6D377C3F8A481C3F8A8213D46C3F86C
:104B60009421C3F8A021C3F89821C3F89C2102F135
:104B700086422749274E02F5DE12C3F8B8E102F556
:104B8000F452C3F8B4E1C1F830C048638863C86325
:104B90000864C86238683368A2FB0332920C520082
:104BA0002B681D491B1A9A42FAD8184812221B4B2F
:104BB0004FF48045C0F8845008465A64184A096882
:104BC0003368A2FB0332920C02EB820203685B1A89
:104BD0009A42FBD84FF420721821204602F0E8F8E0
:104BE00020468122172102F0E3F80020BDE8F08181
:104BF00000C00F4000800D400F1001000120210077
:104C000000C00A40FFDF7DFF00801F4000400042DF
:104C100000841F40D00F0020041000E000802D40D1
:104C200083DE1B43014B187804F0A8BB04ED00E0C1
:104C3000102832D91A4B1B4A9B68F0B453F8204015
:104C4000944218BF43F82020A0F110025309042B0E
:104C500020D89E00144D012402F01F0235440F2974
:104C600004FA02F2104FD5F8806128BF0F210F4CD3
:104C70001643C1F10F0104440020C5F88061090109
:104C800057F82350C9B22A4347F8232084F8001369
:104C9000F0BC70470020F0BC70474FF0FF30704709
:104CA00000ED00E0F51D000000E100E0F0E000E0B4
:104CB000E0B103691B78012B18D1C3681A68AAB147
:104CC000A1B113680020D3F8E43030B4CB701D0ECE
:104CD0001C0C1B0A0D704C708B701368D3F8E830F5
:104CE0001A0E1B0C0A714B7130BC70474FF0FF302D
:104CF000704700BF70B103691B78012B0AD1C368EC
:104D000000201B681B68D3F80422D3F8843281E8A2
:104D10000C0070474FF0FF30704700BFC3684FF082
:104D200000721B681B685A60704700BFF0B4C66809
:104D30004FF400078904154D30684FF4803301F4B7
:104D4000F80144686760A768A06820F40000A060CC
:104D5000307AC00500F0786005432943216401E002
:104D6000013B0BD061680902FAD54FF40003002023
:104D70006360A760236CF0BC138070474FF400039E
:104D80004FF0FF306360A760F0BC70470000026026
:104D9000F0B4C7684FF400008904154D3C684FF427
:104DA000803301F4F80164686060A668A06820F4AC
:104DB0000000A060387AC00500F078600243154317
:104DC0002943216401E0013B09D062681202FAD54F
:104DD0004FF4000300206360A660F0BC70474FF4FE
:104DE00000034FF0FF306360A660F0BC704700BF67
:104DF00000000250002835D0F8B503691B78012B5C
:104E00002DD1C3681F6857B349B30C460546062227
:104E10001649204608F026FA08B30622144920460F
:104E200008F020FAD8B1237813F0010617D1617881
:104E30001B06E278284643EA0143A5783968134304
:104E400043EA0523C1F8E430637922791B0443EA7D
:104E50000263C1F8E83001F01FFE3046F8BD4FF0A4
:104E6000FF30F8BD4FF0FF30704700BF94020020C4
:104E70008C02002038B5C36800224FF0FF3504468D
:104E800019680B6888685A645A629A605D6004F019
:104E9000DBFA2046BDE8384001F0E8BDC3689A69F6
:104EA0002DE9F04F074683B01E6822B1904710B13C
:104EB00003B0BDE8F08F326801235362536A13F0E8
:104EC0000104FBD1B06A4FF0FF314FF00C09946040
:104ED00000F13F0800F18E03ED30516028F03F08EB
:104EE00023F03F0320F03F002546C6F80C80A24681
:104EF000C6F81C803361B361A8F80090A8F802409E
:104F0000FFF7CCFDB36AD6F80CB0C8F8040003F282
:104F10002A709BF808306FF07F088BF8089020F01B
:104F20003F009BF8093040F23D698BF809409BF83F
:104F30000A308BF80A409BF80B308BF80B40FFF7D8
:104F4000ADFD0223CBF80C003375B06A336909FB61
:104F5000050003EBC50413F8352000F6675003F88D
:104F600035800135637820F03F0084F801A0A378F4
:104F700084F802A0E37884F803A0FFF78FFD042DE6
:104F80006060E2D1F1682B4675750A89D6F810E0A9
:104F900042F02002B0680A81BEF818402D4A44F061
:104FA00020042D49AEF81840009704F00DFA0028AF
:104FB0007FF47EAF346940F2FE5EF16818223368F8
:104FC0004FF047084FF4807CC3F82001C3F8240158
:104FD000C3F81801C3F81C01C3F888E14FF06E0E46
:104FE000C3F880410F24C3F884111C49C3F884100E
:104FF0004FF00071C3F8C450C3F8C0210222C3F8B7
:10500000C481C3F844C1C3F8900138463C62746857
:10501000C4F844E099605A6201F0FEFE00287FF473
:1050200047AF33684FF000424FF08071C3F8E4009F
:10503000C3F8E8005A66C3F80402C3F884025A6E43
:1050400022F000425A6630627062196103B0BDE816
:10505000F08F00BFD1240000ED1E00000401FE050A
:10506000F8B50D46002933D04B690D2B30D9C368F4
:105070001E68F3691C8804F08004A4B2002CF9D1E6
:105080005868FFF70BFD2146034607464FF0FF32F5
:10509000284605F0EFFCAB6999061ED5686980B219
:1050A000F469FFF7F7FCF36960801A8842F0800228
:1050B0001A80BFF35F8F1A88920632684CBFF3687C
:1050C0000833F3615369002BFCD14FF080735361B7
:1050D0002846BDE8F84005F029BEBB896869082B61
:1050E00019D02728DBD94DF686529342D7D1397D86
:1050F00028230029D3D003F10E0206293A441ED0FA
:10510000112915D00129CAD104339842C7D30023ED
:105110009370D370C3E71328C1D9BB8A23F040032F
:10512000002BBCD1BB7BF97D9B0003F03C03E0E787
:1051300008339842B3D300239371D371AFE714338C
:105140009842ACD3002313745374A8E7C2684FF09D
:10515000FF33F0B4CE181768053116F8014F082058
:1051600006E01E4B01384FEA540483EA05030AD0D7
:1051700084EA03025D08D207F3D401384FEA5303EF
:105180004FEA5404F4D18E42E7D19B0E012203F082
:105190001F011F2B3B6802FA01F208D8D3F8241133
:1051A0000A420FD03B6A1A433A62F0BC7047D3F808
:1051B00020110A420DD1D3F820110A43F0BCC3F8E4
:1051C00020217047D3F824110A43F0BCC3F82421EE
:1051D00070477B6A1A437A62F0BC70472083B8ED4F
:1051E000C2684FF0FF33F0B4CE181768053116F8D7
:1051F000014F082006E0184B01384FEA540483EAB7
:1052000005030AD084EA03025D08D207F3D401380B
:105210004FEA53034FEA5404F4D18E42E7D19B0E78
:105220000122386803F01F011F2B02FA01F209D98D
:10523000796AD0F8203161EA02021340F0BCC0F86C
:1052400020317047396AD0F8243161EA02021340F4
:10525000F0BCC0F8243170472083B8EDF8B505469E
:1052600004F020F9EB681C68A3691A8810062ED494
:105270004FF080761A8811072DD4A36921681A8807
:10528000083302F0200223F8082C33F8082C42F0EF
:10529000800223F8082C33F8082C920648BF2369B3
:1052A000A3610E611A881707E9D51A8802F0200257
:1052B0001A801A8842F080021A801A8890064CBF21
:1052C00023690833A3610E611A881206D2D5BDE89E
:1052D000F84004F0EFB81A8812F47C5F02D0A3699A
:1052E0002168E2E75868FFF7D9FBA36907465888A9
:1052F000FFF7D0FB39460246284601F0F3FAEEE705
:10530000FFF7ACBFF8B50F4C01270F4804F190062A
:1053100007F0E2FE02E00C34B4420ED02368002B0A
:10532000F9D02579002DF6D127710C3454F8040CEE
:10533000984704F8085CB442F0D10348BDE8F8404F
:1053400007F0D6BE883F002018400020F8B5C8B14D
:1053500006460F4607F0D8FE00220B4D1346AC5808
:105360000C3209493CB101330C2BF8D1002407F071
:10537000D9FE2046F8BD03EB43039B00CC18CE506A
:10538000A760F4E70446F4E7883F002048B110B571
:10539000044607F0B9FE00232360BDE8104007F083
:1053A000C1BE704708B50448902107F053FF034879
:1053B000BDE8084007F082BE883F0020184000206A
:1053C000014807F089BE00BF18400020014807F0DF
:1053D0008FBE00BF1840002038B5DC1C8C420BD8B3
:1053E0001C46054602701A4602346B70049902305E
:1053F00007F0A6FE281938BD002038BD70B590E82A
:105400004400531C9E4203D89AE0B24200F0D88078
:10541000147813460132002CF7D0FF2C00F0D08016
:105420005A7802321A44B24200F2CA8002601C78F2
:105430005D78013C3A2CE4D80FF2040E5EF824F0BB
:1054400083270000D325000075270000D325000026
:10545000D325000067270000D3250000D3250000D6
:10546000D3250000D3250000D3250000D32500005C
:10547000D3250000D3250000D3250000D32500004C
:10548000D3250000D3250000D3250000D32500003C
:10549000D3250000D3250000D3250000D32500002C
:1054A000D3250000D3250000D3250000D32500001C
:1054B000D3250000D3250000D3250000D32500000C
:1054C000D3250000D3250000D3250000D3250000FC
:1054D000D3250000D3250000D3250000D3250000EC
:1054E000D3250000D3250000D3250000D3250000DC
:1054F000D3250000D3250000D3250000D3250000CC
:10550000D3250000D32500005927000041270000C3
:105510002F27000021270000D3250000D3250000FD
:10552000D325000013270000FD260000042D7FF482
:1055300068AFD3F802308B61531C9E423FF668AFD0
:1055400070BD042D7FF45DAFD3F802304B6158E796
:10555000042D7FF456AFD3F80230CB6051E7012D14
:105560007FF44FAF9B7881F8203090E8440048E703
:10557000012D7FF446AF9B78032B3FF642AF81F8B5
:10558000213090E844003CE7042D7FF43AAFD3F893
:105590000230CB6135E7032D7FF633AFD3F802300D
:1055A0000B612EE7032D7FF62CAFD3F802308B6012
:1055B00027E7042D7FF425AFD3F802304B6020E7B6
:1055C00070BD00BF2DE9F0418AB0182500F1340606
:1055D00004460AAB04AA00680F4643F81C5D314636
:1055E0000193002300924FF40A7206F019FE05465B
:1055F00009F0C2FFA3696269C01A904250D2EF2D30
:1056000003DD94F83430022B04D0002528460AB07C
:10561000BDE8F081D4F83880A06AFFF73FFA8045F2
:10562000F3D194F83620062AEFD104F1200104F1D9
:10563000500007F017FE0028E7D104221A4904F5AC
:10564000907007F00FFE0028DFD12421384607F0C4
:1056500001FE6B1E616C04F592721E4404F12C086D
:105660003960394626634046E262FFF7C7FE97F885
:105670002130002BCAD09A07394640464CBF04F16E
:10568000600304F1A003E36297F82130DB074CBF0D
:1056900004F21F1304F19F032363FFF7AFFEB5E786
:1056A0004FF0FF35B2E700BF840200202DE9F04F34
:1056B00000F1340704468DB04FF40A7100F1200860
:1056C000384607F0C7FD06250123A06A84F8365046
:1056D00084F8343084F83530FFF7E0F980232A4627
:1056E000A063E387414604F1500004F5927507F08A
:1056F00027FD04F590700422704907F021FD2379FD
:10570000092B00F28A80DFE803F08B88969EB88828
:10571000C3CE880504F5187204F5177628460423CD
:10572000711B00923222FFF757FE0546002874D005
:1057300003234FF0FF398DF80D300DF10D00711B73
:105740000123352200902846FFF746FE0546002833
:1057500063D09DF80D3003F0FD03012B1CD109F03F
:105760000BFFD4F86432A0615BB104F51970711BB2
:105770000423332200902846FFF72EFE054600281A
:105780004BD04F48711B0623372200902846FFF765
:1057900023FE0546002840D04FF40A70FFF77AF93F
:1057A0000DF1300E711B02232EF8220D39222846EE
:1057B000CDF800E0FFF710FE054670B30DF1300B99
:1057C0004FF0010A414606220DF111000BF820AD01
:1057D00007F0B6FC711B2846CDF800B007233D2228
:1057E000FFF7FAFD0546C0B1FF2306AE182103708E
:1057F000304607F02FFD1823EA1B20684FF486443B
:1058000001930096524439460023ADF818A0CDF814
:105810002090ADF81A4007F065F80DB0BDE8F08FA4
:10582000D4F86C220723D4F8789204F51776226412
:105830008DF80D3081E7012304F517764FF0FF391D
:105840008DF80D3079E704F5247204F517762846B3
:1058500004230092711B3222FFF7BEFD0028DCD02A
:1058600004F52775311A042336220095FFF7B4FD9D
:10587000054600287FF45CAFCFE7D4F86C22042300
:10588000D4F8789204F5177622648DF80D3054E739
:10589000D4F86C220323D4F8789204F517762264A6
:1058A0008DF80D3049E70322D4F86C3204F51776F1
:1058B0004FF0FF398DF80D2023643EE7840200206D
:1058C000DC0E002010B504460171092906D8DFE876
:1058D00001F01328383D4A576778280610BDFFF7B6
:1058E000E5FE0120A1694FF4FA524FF47A63207368
:1058F0002161A260636110BDD0F86C32002B66D1CB
:10590000D4F8B40205F048FD022863D000232068D3
:10591000637106F063FBD4F8B802BDE81040FFF7EE
:1059200035BDD0F8B40205F037FD012805D00022BE
:10593000D4F8B402114605F0CBFCA36A0133A3628C
:1059400010BDFFF7B3FEE369636110BDFFF7AEFE64
:105950000120A1694FF47A624FF47A5320732161D8
:105960006261A36010BDD0F86C12D0F8B40200F0F0
:10597000A7FE09F001FE4FF47A73A061A36010BD89
:1059800083690622D0F880022361431C227316D05B
:10599000FFF784F84FF47A7303FB00F0A06010BDAA
:1059A000FFF784FE0723D4F884022373FFF776F809
:1059B0004FF47A734EF6602203FB00F06261A06040
:1059C00010BDFFF773FE0123D4F88802EDE7FFF75F
:1059D0006DFE95E70022D4F8B402114605F078FC7C
:1059E00094E700BF10B50446D0F87022D0F86C12CE
:1059F000D0F8B40205F06CFCD4F87412D4F8B402F8
:105A000005F076FCD4F87C12D4F8B40205F07CFCE6
:105A1000D4F8B402022105F0CBFC20460521FFF7A3
:105A200051FFD4F8BC323BB1D4F8C8222046D4F898
:105A3000B412BDE81040184710BD00BF10B50446B1
:105A4000FFF7BEFC00212046FFF73CFFBDE81040F9
:105A5000FFF7BCBC0279531EF0B504468DB0082B8D
:105A60003ED8DFE803F04E56056F8805053F050078
:105A7000063A012A40F2B18009F07EFD2369A2684E
:105A8000C01A904280F09D80204603A9FFF79AFD3E
:105A9000421C00F0A980002822DD9DF82C30052B47
:105AA00040F09480039BDBB1069BCBB10A9DBDB156
:105AB000A36923616B1C40F09B800895099503AD99
:105AC00004F51B7694F868720FCD0FC60FCD2D68C4
:105AD0000FC63560002F5AD020460421FFF7F2FE92
:105AE0000DB0F0BD0921FFF7EDFED4F8C032002B58
:105AF000F6D0D4F8C4222046D4F8B41298470DB09A
:105B0000F0BD0221FFF7DEFED4F8C032002BF0D149
:105B1000E6E703A9FFF756FD411C59D00028DFDD59
:105B20009DF82C30022BDBD103AD04F524760FCD8C
:105B30000FC60FCD2D680FC6204635600321FFF735
:105B4000C1FECDE709F018FDA369A268C01A904212
:105B50001DD20022D4F86C12D4F8B40200F04AFC32
:105B600001280546BCD12046FFF7A0FD2946204666
:105B7000FFF7A8FEB4E7D0F8B40205F00DFC50B969
:105B80006379012BACD12046FFF758FFA8E72046E8
:105B9000FFF728FFA4E70CAA182303A9206842F8FE
:105BA000283D00238DE806004FF40A7204F1340109
:105BB00006F036FB09F0E0FC2369A268C01A9042A7
:105BC0008ED9217B2046FFF77DFE89E7062B87D102
:105BD00020460121FFF776FE82E7D0F8B40205F0F7
:105BE000DBFB0028CCD047E72046FFF75FFD77E7D7
:105BF0002846FEF753FFB3281FD84FF034430A93CB
:105C0000089BC3B1099B0A9813B185423FF457AF73
:105C1000FEF744FF4008FEF741FF08900A98FEF7A0
:105C20003DFF05460A98FEF739FFA5EBD000FEF7C9
:105C300035FF099043E70A98EAE70A98FEF72EFF36
:105C4000024B9842DCD9024B0A93D9E79BC420004F
:105C50000020C49B2DE9F043054687B0FFF7B0FB59
:105C6000002D5AD02E68002E57D0304605F0DEFCAD
:105C70008146002851D02C4C6779002F4DD1182136
:105C80004FF00108684607F0E5FA4FF488433A46BA
:105C9000404602210297CDF80490ADF80080ADF89F
:105CA000023006F0CBFC2060002836D0694618226E
:105CB00007F044F870BB062204F12001304605F0DD
:105CC0009DFB38BB21461948FFF740FBC4F8B802DA
:105CD00000B34FF47A63C4F8B462E3616B68C4F84C
:105CE0006032A868FEF7DAFED4F860222B7B002A27
:105CF000C4F86402204684F868320CBF01210821F0
:105D0000FFF7E0FD84F80580FFF760FB204607B051
:105D1000BDE8F083206806F061F9FFF757FB00202B
:105D200007B0BDE8F08300BF1C400020252C000018
:105D300010B14379012B00D07047FFF77FBE00BF41
:105D400000B14079704700BF38B590B10546FFF704
:105D500037FB094B5A79012A04D00024FFF736FBA0
:105D6000204638BDD3F8B40285420CBF1C4600243F
:105D7000F4E70446F4E700BF1C40002089B180B17D
:105D800038B505460C46FFF71BFB05F51B750FCD17
:105D90000FC495E80F0084E80F00BDE83840FFF716
:105DA00015BB704718B119B94FF47A63C3617047D6
:105DB000C1617047037A022B2DE9F04704462FD0CA
:105DC000032B14D0012B01D0BDE8F0870023D0F8BD
:105DD000202200F11C01006806F0F0FDD4F820320A
:105DE000984200F0818003232372BDE8F087FFF71B
:105DF000E7FA0025206806F0F1F86068FFF7C6FAB8
:105E00002572FFF7E3FAD4F81C12D1B3B4F8288254
:105E1000B8F1010F4FD0B8F1020F7ED0284631E023
:105E200000F11C0100234FF40072006806F06AFACA
:105E3000061E60DDA28BB4F824329A42C4D1B4F9B4
:105E40001E30002BC0DA0B2ECDDD0B2502E0013514
:105E5000B542C8D263191B7FC02BF8D105F11801D8
:105E6000B4F8263221440F1D7A88934203D1BA88B0
:105E7000B2F5807F0BD00B357889FEF70BFE054419
:105E8000E5E70846E3682269BDE8F04718471022B5
:105E9000B3F5807FD4F81C3211445DD1F96804EB6E
:105EA000C3020C2B1162D7F80610D1619BD80133C5
:105EB000C4F81C32DFE704F18C0927464E4618214E
:105EC000304607F0C7F93B6AD4F81C120135B360BD
:105ED00008377B69A942A6F8008006F11C0646F83F
:105EE000043CECD84846CDE709F046FB022360614C
:105EF0002372BDE8F08709F03FFB6369C01AB0F573
:105F00007A7F7FF661AFA3690133052BA3613FF66A
:105F10006AAF01232372BDE8F08704F1EC0604F1B7
:105F20002007A6F10800182107F094F9394626F851
:105F3000088C30461022013507F002F9D4F81C1203
:105F400057F8043C1C36A94207F1140746F80C3CEC
:105F5000E7D804F1E40095E703EB830304EB830047
:105F6000203007F0EDF8D4F81C32D7F8061003EB18
:105F70008302082B04EB8202D16198D933E700BF7A
:105F80002DE9F04F4FF400738BB005460293FFF7F5
:105F900017FABDB12B6AABB1A86907F07DF90138DA
:105FA000FD280FD81822294604A807F0C9F804A82C
:105FB00006F07AFC012800F0AD80DFF8E49199F852
:105FC00008402CB1FFF702FA00200BB0BDE8F08FBB
:105FD0004FF40B71484607F03DF9AB8B296A6A6AAA
:105FE000012BC9F80C10C9F81020A9F82832C9F8FB
:105FF0001C4200F08A80022BE4D14FF4E053A9F850
:106000002632664C00220221BDF810002388C9F810
:1060100018200133624E9BB22380A9F8243206F087
:106020000DFBC9F800000028CCD0042406225D49ED
:1060300002AB009406F070F9306802AB00940522C0
:10604000584906F069F9BDF812301BB94FF45453A2
:10605000ADF8123004A91822D9F8000006F090FD1E
:1060600001304F4E00F08C8006F11C004FF400719F
:1060700007F0F0F8A9690122B6F824524FF48073B2
:106080000DF12808002406F12900F28306F1280BFF
:10609000B583338448F81C4DB6F826A207F008F9FA
:1060A0004246414906F1290007F010F906E00020B8
:1060B0008CF828300EF1010407F008F9601C384D07
:1060C000584405F1280707F0E7F806EB040C0346EF
:1060D000424604EB000E34490028E8D1274401264B
:1060E00011342946A7F801A0FB703E712F48C5F86E
:1060F0002042FFF72BF96860002841D02E72FFF78D
:1061000065F928460BB0BDE8F08F4FF48073A9F80D
:10611000263276E7059805F093FA0446002838D031
:10612000002614B3BDF8103020460BB1DA0706D5AF
:1061300005F012F90690A8B9BDF810300BB19B0715
:1061400006D506AA0021204605F010F901281CD02A
:10615000059B002BE6D1771C304604F0D7FF0446A0
:106160003E46DEE70123ADF8103004A806F09CFBA4
:1061700000287FF427AF204605F058FA05901CE769
:10618000D9F8000005F02AFF1CE70223ADF8103013
:10619000EBE705F0C5F80446C2E700BF1445002050
:1061A000E842002017E5030088020020852F000048
:1061B00010B50446006805F0FFF9237B834207D041
:1061C00020730146236962692068BDE810401847C2
:1061D00010BD00BFF8B50546FFF7F2F835B12B68E2
:1061E00023B16B6813B10E4C26790EB10020F8BDB7
:1061F0001821204607F02EF82F686A682146AB6800
:106200000848276022616361FFF7A0F8A0600028BA
:10621000ECD0012326732371FFF7D8F82046F8BD90
:10622000184500208133000005F0F8B970B50F4E15
:1062300000F1F005044602E01834AC4214D0A36823
:10624000002BF9D009F098F9E368C01AB042F3D9ED
:10625000236918460BB104F069FD20461834182153
:1062600006F0F8FFAC42EAD170BD00BF804F1200CB
:106270002DE9F0470023164604460F4680460246A5
:1062800091681832B9424AD001330A2BF8D123461B
:1062900000259A68183312B301350A2DF9D100256B
:1062A000A946AA4606E00AF1010A08F11808BAF15F
:1062B0000A0F14D009F060F9D8F80C30C01A48451C
:1062C000F1D955460AF1010A09F056F9D8F80C300F
:1062D000BAF10A0F08F11808C3EB0009EAD14FEA36
:1062E000450909EB050804EBC808D8F8100030B1DF
:1062F00004F01CFD0023C8F81030C8F814304D44D9
:106300003146062204EBC5052846AF6006F018FFAB
:1063100009F032F92B46E8601846BDE8F08703EB38
:1063200043033146062204EBC304204606F008FF6F
:1063300009F022F92346E0601846BDE8F08700BF67
:1063400008B301B3F8B507460E4601F1F0050C4657
:10635000B96520461834182106F07CFFAC42F8D10C
:1063600032460C490C4809F03FF9C6F8F00068B114
:1063700039460A4803F04AF8B0FA80F3C6F8F40048
:106380005B095842F8BD4FF0FF3070474FF0FF30C7
:10639000F8BD00BFFD330000E0930400F9330000B6
:1063A00010B5846D34B1D4F8F00009F03DF9002344
:1063B000C4F8F03010BD00BF806D0023024610B558
:1063C000946818328C4205D001330A2BF8D100248E
:1063D000204610BD03EB43030622054900EBC3042E
:1063E000204606F03FFF0028F1D0204610BD00BF38
:1063F0009402002070B5D0B1846D94B104460E466D
:10640000154603F04FF831462046FFF7D5FF60B13F
:106410004DB1014606222846012406F091FE03F004
:1064200049F8204670BD0124F9E70446F7E7044621
:10643000204670BD2DE9F04385B00B4601914969B6
:106440001B2904D9DC682288B2F5807F05D0184664
:1064500004F06CFC05B0BDE8F0832279062AF6D181
:106460006288082AF3D16279042AF0D11C290546F2
:10647000D0F8589008D10622284602A904F0A6FFB9
:10648000064638B1019BE2E7C1F11C0101A804F006
:10649000E1FCF0E704F10807062202A9384606F0FD
:1064A000E1FE0028EED006223449384606F0DAFE36
:1064B0000028E7D0D4F80E10EB6AD4F8188099427F
:1064C0004DD0984515D03346AA6D4FF0180E01E017
:1064D0000A2BD7D00EFB03260133B0688142F7D1D7
:1064E00006223946304606F02BFE09F045F8F060EA
:1064F00005E03A46A86DFFF7BBFE064650B133698A
:1065000043B132464FF40061284600F03BFA0023C5
:1065100033617361E388B3F5807FB3D1EB6A98454B
:10652000B0D1022304F1120600210622E3713046A5
:10653000A171394606F004FE02A93846062206F08B
:10654000FFFDD4F80E10EB6A3246A1612846C4F86C
:106550000E3040F60601019B00F014FA7AE721B9EB
:10656000AB6DD3F8F8309845D4D10123D9F8F400B5
:1065700085F8543002F0C8FFCCE700BF8C02002041
:10658000002849D02DE9F043D0F8588083B0B8F105
:10659000000F22D00546894602F084FF01211C200D
:1065A00004F00CFA0646B0B1C468002308210422A6
:1065B0004FF0010E0627A1702846627169463A46DF
:1065C0002370E370A37184F801E084F807E0277179
:1065D00004F0FCFE20B102F06DFF03B0BDE8F083D3
:1065E0003A460E4904F1120006F0AAFD3A46694601
:1065F00004F1080006F0A4FDEB6AC4F81890C4F892
:106600000E300BB9C8F8F89033462846044A40F6D5
:10661000060100F0B7F9DEE7704700BF94020020E2
:106620008C0200202DE9F047D0F8588007460D462F
:106630009146002402F036FF43469A681833AA4276
:1066400019D001340A2CF8D11C4A2946B86DFFF73D
:106650000FFE0646006908B104F068FBC6F810900A
:1066600008F08AFF294670613846FFF789FFBDE8C8
:10667000F04702F01FBF04EB440608EBC60633697F
:1066800006F1100A9BB108F077FF7369C01AB0F5E4
:106690007A7FDAF8000008D848B104F047FBC6F862
:1066A0001090BDE8F04702F005BF0028D4D11823B0
:1066B00003FB0484C4F81090D2E700BF94020020CA
:1066C00038B504460D4606F01FFD29462046FFF763
:1066D00057FFBDE8384006F025BD00BF70B5846D9A
:1066E000002502F0DFFE04F1F006236918461BB115
:1066F00004F01CFB256165611834B442F5D1BDE896
:10670000704002F0D7BE00BFB1F1200C2DE9F04F70
:106710003ED402F12003E64633F8204CBEF1200EB1
:1067200033F81E1C03F1200333F83C5C214433F89A
:106730003A4C33F8387C294433F8366C33F8345CFF
:10674000214433F8324C33F830BC394433F82EACA2
:1067500033F82C9C314433F82A8C33F8287C2944B4
:1067600033F8266C33F8245C214433F8224C594426
:106770005144494441443944314429442144084462
:10678000CAD54FEA5C114B1CACEB411102EB431232
:10679000B1F1080718D402F108033E4633F8084C5B
:1067A000083E33F8061C03F1080333F80C5C21445F
:1067B00033F80A4C294421440844EFD5F9084B1C0E
:1067C000A7EBC10102EBC3028D1E0CD42B46114670
:1067D00031F8024B023B2044FAD569084B1CA5EB6B
:1067E000410102EB430209B113781844BDE8F08F70
:1067F000F0B5056983B007460C468D424FF00006A0
:10680000C26828BF0D462946304624B1641BFFF7F5
:106810007BFF064614B9304603B0F0BD3F6815F063
:106820000105FA682B4605D139692546A14298BF72
:10683000CD18E8E712F8010B013C00920192FEF737
:1068400029F94FF0FF330644009AEDE708B5FFF74A
:10685000CFFF4FF6FF7303441A0C03D012FA83F3F1
:106860001A0CFBD1D84380B208BD00BF70B51546E5
:106870000E461146FFF7BCFF04462846FEF70AF90C
:106880004FF6FF7333441C442044030C03D013FA27
:1068900080F0030CFBD180B270BD00BF38B51C4640
:1068A00015460A461946FFF72FFF2A462146FFF7ED
:1068B0002BFF4FF6FF7303441A0C03D012FA83F335
